{
  "_format": "hh-sol-artifact-1",
  "contractName": "ClearanceCard001",
  "sourceName": "contracts/ClearanceCard001.sol",
  "abi": [
    {
      "inputs": [],
      "stateMutability": "nonpayable",
      "type": "constructor"
    },
    {
      "anonymous": false,
      "inputs": [
        {
          "indexed": true,
          "internalType": "address",
          "name": "owner",
          "type": "address"
        },
        {
          "indexed": true,
          "internalType": "address",
          "name": "approved",
          "type": "address"
        },
        {
          "indexed": true,
          "internalType": "uint256",
          "name": "tokenId",
          "type": "uint256"
        }
      ],
      "name": "Approval",
      "type": "event"
    },
    {
      "anonymous": false,
      "inputs": [
        {
          "indexed": true,
          "internalType": "address",
          "name": "owner",
          "type": "address"
        },
        {
          "indexed": true,
          "internalType": "address",
          "name": "operator",
          "type": "address"
        },
        {
          "indexed": false,
          "internalType": "bool",
          "name": "approved",
          "type": "bool"
        }
      ],
      "name": "ApprovalForAll",
      "type": "event"
    },
    {
      "anonymous": false,
      "inputs": [
        {
          "indexed": true,
          "internalType": "uint256",
          "name": "id",
          "type": "uint256"
        },
        {
          "indexed": true,
          "internalType": "uint256",
          "name": "levels",
          "type": "uint256"
        },
        {
          "indexed": true,
          "internalType": "uint256",
          "name": "newLevel",
          "type": "uint256"
        }
      ],
      "name": "CardLevelDown",
      "type": "event"
    },
    {
      "anonymous": false,
      "inputs": [
        {
          "indexed": true,
          "internalType": "uint256",
          "name": "id",
          "type": "uint256"
        },
        {
          "indexed": true,
          "internalType": "uint256",
          "name": "levels",
          "type": "uint256"
        },
        {
          "indexed": true,
          "internalType": "uint256",
          "name": "newLevel",
          "type": "uint256"
        }
      ],
      "name": "CardLevelUp",
      "type": "event"
    },
    {
      "anonymous": false,
      "inputs": [
        {
          "indexed": true,
          "internalType": "address",
          "name": "previousOwner",
          "type": "address"
        },
        {
          "indexed": true,
          "internalType": "address",
          "name": "newOwner",
          "type": "address"
        }
      ],
      "name": "OwnershipTransferred",
      "type": "event"
    },
    {
      "anonymous": false,
      "inputs": [
        {
          "indexed": true,
          "internalType": "address",
          "name": "from",
          "type": "address"
        },
        {
          "indexed": true,
          "internalType": "address",
          "name": "to",
          "type": "address"
        },
        {
          "indexed": true,
          "internalType": "uint256",
          "name": "tokenId",
          "type": "uint256"
        }
      ],
      "name": "Transfer",
      "type": "event"
    },
    {
      "inputs": [
        {
          "internalType": "uint256",
          "name": "",
          "type": "uint256"
        }
      ],
      "name": "URIs",
      "outputs": [
        {
          "internalType": "string",
          "name": "",
          "type": "string"
        }
      ],
      "stateMutability": "view",
      "type": "function"
    },
    {
      "inputs": [
        {
          "internalType": "address",
          "name": "to",
          "type": "address"
        },
        {
          "internalType": "uint256",
          "name": "tokenId",
          "type": "uint256"
        }
      ],
      "name": "approve",
      "outputs": [],
      "stateMutability": "nonpayable",
      "type": "function"
    },
    {
      "inputs": [
        {
          "internalType": "address",
          "name": "owner",
          "type": "address"
        }
      ],
      "name": "balanceOf",
      "outputs": [
        {
          "internalType": "uint256",
          "name": "",
          "type": "uint256"
        }
      ],
      "stateMutability": "view",
      "type": "function"
    },
    {
      "inputs": [
        {
          "internalType": "uint256",
          "name": "",
          "type": "uint256"
        }
      ],
      "name": "cardLevels",
      "outputs": [
        {
          "internalType": "uint256",
          "name": "",
          "type": "uint256"
        }
      ],
      "stateMutability": "view",
      "type": "function"
    },
    {
      "inputs": [],
      "name": "daoReserve",
      "outputs": [
        {
          "internalType": "uint256",
          "name": "",
          "type": "uint256"
        }
      ],
      "stateMutability": "view",
      "type": "function"
    },
    {
      "inputs": [
        {
          "internalType": "uint256",
          "name": "_id",
          "type": "uint256"
        }
      ],
      "name": "generateCardURI",
      "outputs": [
        {
          "internalType": "string",
          "name": "",
          "type": "string"
        }
      ],
      "stateMutability": "view",
      "type": "function"
    },
    {
      "inputs": [
        {
          "internalType": "uint256",
          "name": "tokenId",
          "type": "uint256"
        }
      ],
      "name": "getApproved",
      "outputs": [
        {
          "internalType": "address",
          "name": "",
          "type": "address"
        }
      ],
      "stateMutability": "view",
      "type": "function"
    },
    {
      "inputs": [
        {
          "internalType": "address",
          "name": "owner",
          "type": "address"
        },
        {
          "internalType": "address",
          "name": "operator",
          "type": "address"
        }
      ],
      "name": "isApprovedForAll",
      "outputs": [
        {
          "internalType": "bool",
          "name": "",
          "type": "bool"
        }
      ],
      "stateMutability": "view",
      "type": "function"
    },
    {
      "inputs": [
        {
          "internalType": "uint256",
          "name": "_id",
          "type": "uint256"
        },
        {
          "internalType": "uint256",
          "name": "_levels",
          "type": "uint256"
        }
      ],
      "name": "levelDownCard",
      "outputs": [],
      "stateMutability": "nonpayable",
      "type": "function"
    },
    {
      "inputs": [
        {
          "internalType": "uint256[]",
          "name": "_ids",
          "type": "uint256[]"
        },
        {
          "internalType": "uint256[]",
          "name": "_levels",
          "type": "uint256[]"
        }
      ],
      "name": "levelDownCardBatch",
      "outputs": [],
      "stateMutability": "nonpayable",
      "type": "function"
    },
    {
      "inputs": [
        {
          "internalType": "uint256",
          "name": "_id",
          "type": "uint256"
        },
        {
          "internalType": "uint256",
          "name": "_levels",
          "type": "uint256"
        }
      ],
      "name": "levelUpCard",
      "outputs": [],
      "stateMutability": "nonpayable",
      "type": "function"
    },
    {
      "inputs": [
        {
          "internalType": "uint256[]",
          "name": "_ids",
          "type": "uint256[]"
        },
        {
          "internalType": "uint256[]",
          "name": "_levels",
          "type": "uint256[]"
        }
      ],
      "name": "levelUpCardBatch",
      "outputs": [],
      "stateMutability": "nonpayable",
      "type": "function"
    },
    {
      "inputs": [
        {
          "internalType": "uint256",
          "name": "_amount",
          "type": "uint256"
        }
      ],
      "name": "mint",
      "outputs": [],
      "stateMutability": "payable",
      "type": "function"
    },
    {
      "inputs": [
        {
          "internalType": "uint256",
          "name": "_amount",
          "type": "uint256"
        }
      ],
      "name": "mintDAO",
      "outputs": [],
      "stateMutability": "nonpayable",
      "type": "function"
    },
    {
      "inputs": [],
      "name": "name",
      "outputs": [
        {
          "internalType": "string",
          "name": "",
          "type": "string"
        }
      ],
      "stateMutability": "view",
      "type": "function"
    },
    {
      "inputs": [],
      "name": "owner",
      "outputs": [
        {
          "internalType": "address",
          "name": "",
          "type": "address"
        }
      ],
      "stateMutability": "view",
      "type": "function"
    },
    {
      "inputs": [
        {
          "internalType": "uint256",
          "name": "tokenId",
          "type": "uint256"
        }
      ],
      "name": "ownerOf",
      "outputs": [
        {
          "internalType": "address",
          "name": "",
          "type": "address"
        }
      ],
      "stateMutability": "view",
      "type": "function"
    },
    {
      "inputs": [],
      "name": "price",
      "outputs": [
        {
          "internalType": "uint256",
          "name": "",
          "type": "uint256"
        }
      ],
      "stateMutability": "view",
      "type": "function"
    },
    {
      "inputs": [],
      "name": "renounceOwnership",
      "outputs": [],
      "stateMutability": "nonpayable",
      "type": "function"
    },
    {
      "inputs": [
        {
          "internalType": "address",
          "name": "from",
          "type": "address"
        },
        {
          "internalType": "address",
          "name": "to",
          "type": "address"
        },
        {
          "internalType": "uint256",
          "name": "tokenId",
          "type": "uint256"
        }
      ],
      "name": "safeTransferFrom",
      "outputs": [],
      "stateMutability": "nonpayable",
      "type": "function"
    },
    {
      "inputs": [
        {
          "internalType": "address",
          "name": "from",
          "type": "address"
        },
        {
          "internalType": "address",
          "name": "to",
          "type": "address"
        },
        {
          "internalType": "uint256",
          "name": "tokenId",
          "type": "uint256"
        },
        {
          "internalType": "bytes",
          "name": "_data",
          "type": "bytes"
        }
      ],
      "name": "safeTransferFrom",
      "outputs": [],
      "stateMutability": "nonpayable",
      "type": "function"
    },
    {
      "inputs": [
        {
          "internalType": "address",
          "name": "operator",
          "type": "address"
        },
        {
          "internalType": "bool",
          "name": "approved",
          "type": "bool"
        }
      ],
      "name": "setApprovalForAll",
      "outputs": [],
      "stateMutability": "nonpayable",
      "type": "function"
    },
    {
      "inputs": [
        {
          "internalType": "bytes4",
          "name": "interfaceId",
          "type": "bytes4"
        }
      ],
      "name": "supportsInterface",
      "outputs": [
        {
          "internalType": "bool",
          "name": "",
          "type": "bool"
        }
      ],
      "stateMutability": "view",
      "type": "function"
    },
    {
      "inputs": [],
      "name": "symbol",
      "outputs": [
        {
          "internalType": "string",
          "name": "",
          "type": "string"
        }
      ],
      "stateMutability": "view",
      "type": "function"
    },
    {
      "inputs": [
        {
          "internalType": "uint256",
          "name": "tokenId",
          "type": "uint256"
        }
      ],
      "name": "tokenURI",
      "outputs": [
        {
          "internalType": "string",
          "name": "",
          "type": "string"
        }
      ],
      "stateMutability": "view",
      "type": "function"
    },
    {
      "inputs": [],
      "name": "totalEditions",
      "outputs": [
        {
          "internalType": "uint256",
          "name": "",
          "type": "uint256"
        }
      ],
      "stateMutability": "view",
      "type": "function"
    },
    {
      "inputs": [],
      "name": "totalSupply",
      "outputs": [
        {
          "internalType": "uint256",
          "name": "",
          "type": "uint256"
        }
      ],
      "stateMutability": "view",
      "type": "function"
    },
    {
      "inputs": [
        {
          "internalType": "address",
          "name": "from",
          "type": "address"
        },
        {
          "internalType": "address",
          "name": "to",
          "type": "address"
        },
        {
          "internalType": "uint256",
          "name": "tokenId",
          "type": "uint256"
        }
      ],
      "name": "transferFrom",
      "outputs": [],
      "stateMutability": "nonpayable",
      "type": "function"
    },
    {
      "inputs": [
        {
          "internalType": "address",
          "name": "newOwner",
          "type": "address"
        }
      ],
      "name": "transferOwnership",
      "outputs": [],
      "stateMutability": "nonpayable",
      "type": "function"
    },
    {
      "inputs": [
        {
          "internalType": "address payable",
          "name": "withdrawAddress",
          "type": "address"
        }
      ],
      "name": "withdraw",
      "outputs": [],
      "stateMutability": "payable",
      "type": "function"
    }
  ],
  "bytecode": "0x60806040526107d060095560c8600a55670214e8348c4f0000600b556040518061016001604052806040518060800160405280605781526020016200541f605791398152602001604051806080016040528060578152602001620051f46057913981526020016040518060800160405280605781526020016200524b605791398152602001604051806080016040528060578152602001620053c8605791398152602001604051806080016040528060578152602001620052c3605791398152602001604051806080016040528060578152602001620055246057913981526020016040518060800160405280605781526020016200557b605791398152602001604051806080016040528060578152602001620054cd60579139815260200160405180608001604052806057815260200162005371605791398152602001604051806080016040528060578152602001620054766057913981526020016040518060800160405280605781526020016200531a60579139815250600c90600b6200018c92919062000313565b503480156200019a57600080fd5b50604051806060016040528060218152602001620052a2602191396040518060400160405280600581526020017f53463030310000000000000000000000000000000000000000000000000000008152508160009080519060200190620002039291906200036d565b5080600190805190602001906200021c9291906200036d565b5050506200023f620002336200024560201b60201c565b6200024d60201b60201c565b620004f0565b600033905090565b6000600760009054906101000a900473ffffffffffffffffffffffffffffffffffffffff16905081600760006101000a81548173ffffffffffffffffffffffffffffffffffffffff021916908373ffffffffffffffffffffffffffffffffffffffff1602179055508173ffffffffffffffffffffffffffffffffffffffff168173ffffffffffffffffffffffffffffffffffffffff167f8be0079c531659141344cd1fd0a4f28419497f9722a3daafe3b4186f6b6457e060405160405180910390a35050565b82600b81019282156200035a579160200282015b8281111562000359578251829080519060200190620003489291906200036d565b509160200191906001019062000327565b5b509050620003699190620003fe565b5090565b8280546200037b906200048b565b90600052602060002090601f0160209004810192826200039f5760008555620003eb565b82601f10620003ba57805160ff1916838001178555620003eb565b82800160010185558215620003eb579182015b82811115620003ea578251825591602001919060010190620003cd565b5b509050620003fa919062000426565b5090565b5b8082111562000422576000818162000418919062000445565b50600101620003ff565b5090565b5b808211156200044157600081600090555060010162000427565b5090565b50805462000453906200048b565b6000825580601f1062000467575062000488565b601f01602090049060005260206000209081019062000487919062000426565b5b50565b60006002820490506001821680620004a457607f821691505b60208210811415620004bb57620004ba620004c1565b5b50919050565b7f4e487b7100000000000000000000000000000000000000000000000000000000600052602260045260246000fd5b614cf480620005006000396000f3fe6080604052600436106101c25760003560e01c80638da5cb5b116100f7578063b88d4fde11610095578063de60cc5f11610064578063de60cc5f14610648578063e985e9c514610671578063f2fde38b146106ae578063f820a53d146106d7576101c2565b8063b88d4fde1461057c578063c0435665146105a5578063c87b56dd146105ce578063d4101d311461060b576101c2565b8063a035b1fe116100d1578063a035b1fe146104e3578063a0712d681461050e578063a22cb4651461052a578063adc149cb14610553576101c2565b80638da5cb5b14610450578063953f97aa1461047b57806395d89b41146104b8576101c2565b806342842e0e116101645780636352211e1161013e5780636352211e1461038257806370a08231146103bf578063715018a6146103fc5780637cb6e9d714610413576101c2565b806342842e0e1461031257806351cff8d91461033b57806351d329dc14610357576101c2565b8063095ea7b3116101a0578063095ea7b31461026c5780632077b2231461029557806323b872dd146102c05780633ae1c05e146102e9576101c2565b806301ffc9a7146101c757806306fdde0314610204578063081812fc1461022f575b600080fd5b3480156101d357600080fd5b506101ee60048036038101906101e991906130a0565b610700565b6040516101fb91906139be565b60405180910390f35b34801561021057600080fd5b506102196107e2565b60405161022691906139d9565b60405180910390f35b34801561023b57600080fd5b50610256600480360381019061025191906130fa565b610874565b6040516102639190613957565b60405180910390f35b34801561027857600080fd5b50610293600480360381019061028e9190612fe8565b6108f9565b005b3480156102a157600080fd5b506102aa610a11565b6040516102b79190613d3b565b60405180910390f35b3480156102cc57600080fd5b506102e760048036038101906102e29190612ed2565b610a17565b005b3480156102f557600080fd5b50610310600480360381019061030b9190613028565b610a77565b005b34801561031e57600080fd5b5061033960048036038101906103349190612ed2565b610d41565b005b61035560048036038101906103509190612e65565b610d61565b005b34801561036357600080fd5b5061036c610f41565b6040516103799190613d3b565b60405180910390f35b34801561038e57600080fd5b506103a960048036038101906103a491906130fa565b610f47565b6040516103b69190613957565b60405180910390f35b3480156103cb57600080fd5b506103e660048036038101906103e19190612e38565b610ff9565b6040516103f39190613d3b565b60405180910390f35b34801561040857600080fd5b506104116110b1565b005b34801561041f57600080fd5b5061043a600480360381019061043591906130fa565b611139565b60405161044791906139d9565b60405180910390f35b34801561045c57600080fd5b506104656111e0565b6040516104729190613957565b60405180910390f35b34801561048757600080fd5b506104a2600480360381019061049d91906130fa565b61120a565b6040516104af91906139d9565b60405180910390f35b3480156104c457600080fd5b506104cd6112ad565b6040516104da91906139d9565b60405180910390f35b3480156104ef57600080fd5b506104f861133f565b6040516105059190613d3b565b60405180910390f35b610528600480360381019061052391906130fa565b611345565b005b34801561053657600080fd5b50610551600480360381019061054c9190612fa8565b61148f565b005b34801561055f57600080fd5b5061057a60048036038101906105759190613127565b6114a5565b005b34801561058857600080fd5b506105a3600480360381019061059e9190612f25565b6115d9565b005b3480156105b157600080fd5b506105cc60048036038101906105c79190613127565b61163b565b005b3480156105da57600080fd5b506105f560048036038101906105f091906130fa565b6117d1565b60405161060291906139d9565b60405180910390f35b34801561061757600080fd5b50610632600480360381019061062d91906130fa565b61182b565b60405161063f9190613d3b565b60405180910390f35b34801561065457600080fd5b5061066f600480360381019061066a91906130fa565b611843565b005b34801561067d57600080fd5b5061069860048036038101906106939190612e92565b6119d3565b6040516106a591906139be565b60405180910390f35b3480156106ba57600080fd5b506106d560048036038101906106d09190612e38565b611a67565b005b3480156106e357600080fd5b506106fe60048036038101906106f99190613028565b611b5f565b005b60007f80ac58cd000000000000000000000000000000000000000000000000000000007bffffffffffffffffffffffffffffffffffffffffffffffffffffffff1916827bffffffffffffffffffffffffffffffffffffffffffffffffffffffff191614806107cb57507f5b5e139f000000000000000000000000000000000000000000000000000000007bffffffffffffffffffffffffffffffffffffffffffffffffffffffff1916827bffffffffffffffffffffffffffffffffffffffffffffffffffffffff1916145b806107db57506107da82611d93565b5b9050919050565b6060600080546107f190614042565b80601f016020809104026020016040519081016040528092919081815260200182805461081d90614042565b801561086a5780601f1061083f5761010080835404028352916020019161086a565b820191906000526020600020905b81548152906001019060200180831161084d57829003601f168201915b5050505050905090565b600061087f82611dfd565b6108be576040517f08c379a00000000000000000000000000000000000000000000000000000000081526004016108b590613c3b565b60405180910390fd5b6004600083815260200190815260200160002060009054906101000a900473ffffffffffffffffffffffffffffffffffffffff169050919050565b600061090482610f47565b90508073ffffffffffffffffffffffffffffffffffffffff168373ffffffffffffffffffffffffffffffffffffffff161415610975576040517f08c379a000000000000000000000000000000000000000000000000000000000815260040161096c90613c9b565b60405180910390fd5b8073ffffffffffffffffffffffffffffffffffffffff16610994611e69565b73ffffffffffffffffffffffffffffffffffffffff1614806109c357506109c2816109bd611e69565b6119d3565b5b610a02576040517f08c379a00000000000000000000000000000000000000000000000000000000081526004016109f990613b9b565b60405180910390fd5b610a0c8383611e71565b505050565b600a5481565b610a28610a22611e69565b82611f2a565b610a67576040517f08c379a0000000000000000000000000000000000000000000000000000000008152600401610a5e90613cbb565b60405180910390fd5b610a72838383612008565b505050565b610a7f611e69565b73ffffffffffffffffffffffffffffffffffffffff16610a9d6111e0565b73ffffffffffffffffffffffffffffffffffffffff1614610af3576040517f08c379a0000000000000000000000000000000000000000000000000000000008152600401610aea90613c7b565b60405180910390fd5b8051825114610b37576040517f08c379a0000000000000000000000000000000000000000000000000000000008152600401610b2e90613d1b565b60405180910390fd5b60005b8251811015610d3c57600a828281518110610b5857610b576141ac565b5b602002602001015160176000868581518110610b7757610b766141ac565b5b6020026020010151815260200190815260200160002054610b989190613e3b565b1115610bd9576040517f08c379a0000000000000000000000000000000000000000000000000000000008152600401610bd0906139fb565b60405180910390fd5b610bfc838281518110610bef57610bee6141ac565b5b6020026020010151611dfd565b610c3b576040517f08c379a0000000000000000000000000000000000000000000000000000000008152600401610c3290613bfb565b60405180910390fd5b818181518110610c4e57610c4d6141ac565b5b602002602001015160176000858481518110610c6d57610c6c6141ac565b5b602002602001015181526020019081526020016000206000828254610c929190613e3b565b9250508190555060176000848381518110610cb057610caf6141ac565b5b6020026020010151815260200190815260200160002054828281518110610cda57610cd96141ac565b5b6020026020010151848381518110610cf557610cf46141ac565b5b60200260200101517f10e1ebf9c7a47e4e4ff2bc14d0556b003dc0dbb826023862d3b43aef88af5ff460405160405180910390a48080610d34906140a5565b915050610b3a565b505050565b610d5c838383604051806020016040528060008152506115d9565b505050565b610d69611e69565b73ffffffffffffffffffffffffffffffffffffffff16610d876111e0565b73ffffffffffffffffffffffffffffffffffffffff1614610ddd576040517f08c379a0000000000000000000000000000000000000000000000000000000008152600401610dd490613c7b565b60405180910390fd5b600073ffffffffffffffffffffffffffffffffffffffff168173ffffffffffffffffffffffffffffffffffffffff161415610e4d576040517f08c379a0000000000000000000000000000000000000000000000000000000008152600401610e4490613cdb565b60405180910390fd5b6000471015610e91576040517f08c379a0000000000000000000000000000000000000000000000000000000008152600401610e8890613b7b565b60405180910390fd5b60008173ffffffffffffffffffffffffffffffffffffffff1647604051610eb790613942565b60006040518083038185875af1925050503d8060008114610ef4576040519150601f19603f3d011682016040523d82523d6000602084013e610ef9565b606091505b5050905080610f3d576040517f08c379a0000000000000000000000000000000000000000000000000000000008152600401610f3490613adb565b60405180910390fd5b5050565b60095481565b6000806002600084815260200190815260200160002060009054906101000a900473ffffffffffffffffffffffffffffffffffffffff169050600073ffffffffffffffffffffffffffffffffffffffff168173ffffffffffffffffffffffffffffffffffffffff161415610ff0576040517f08c379a0000000000000000000000000000000000000000000000000000000008152600401610fe790613bdb565b60405180910390fd5b80915050919050565b60008073ffffffffffffffffffffffffffffffffffffffff168273ffffffffffffffffffffffffffffffffffffffff16141561106a576040517f08c379a000000000000000000000000000000000000000000000000000000000815260040161106190613bbb565b60405180910390fd5b600360008373ffffffffffffffffffffffffffffffffffffffff1673ffffffffffffffffffffffffffffffffffffffff168152602001908152602001600020549050919050565b6110b9611e69565b73ffffffffffffffffffffffffffffffffffffffff166110d76111e0565b73ffffffffffffffffffffffffffffffffffffffff161461112d576040517f08c379a000000000000000000000000000000000000000000000000000000000815260040161112490613c7b565b60405180910390fd5b611137600061226f565b565b60606000601760008481526020019081526020016000205490506111b961115f82612335565b61116885612335565b600c84600b811061117c5761117b6141ac565b5b01600c85600b8110611191576111906141ac565b5b016040516020016111a59493929190613853565b604051602081830303815290604052612496565b6040516020016111c99190613920565b604051602081830303815290604052915050919050565b6000600760009054906101000a900473ffffffffffffffffffffffffffffffffffffffff16905090565b600c81600b811061121a57600080fd5b01600091509050805461122c90614042565b80601f016020809104026020016040519081016040528092919081815260200182805461125890614042565b80156112a55780601f1061127a576101008083540402835291602001916112a5565b820191906000526020600020905b81548152906001019060200180831161128857829003601f168201915b505050505081565b6060600180546112bc90614042565b80601f01602080910402602001604051908101604052809291908181526020018280546112e890614042565b80156113355780601f1061130a57610100808354040283529160200191611335565b820191906000526020600020905b81548152906001019060200180831161131857829003601f168201915b5050505050905090565b600b5481565b600954611352600861260f565b1115611393576040517f08c379a000000000000000000000000000000000000000000000000000000000815260040161138a90613cfb565b60405180910390fd5b60058111156113d7576040517f08c379a00000000000000000000000000000000000000000000000000000000081526004016113ce90613b3b565b60405180910390fd5b80600b546113e59190613ec2565b3414611426576040517f08c379a000000000000000000000000000000000000000000000000000000000815260040161141d90613abb565b60405180910390fd5b60005b6001826114369190613f1c565b811161148b576000611448600861260f565b9050611454338261261d565b61145e600861263b565b60006017600083815260200190815260200160002081905550508080611483906140a5565b915050611429565b5050565b6114a161149a611e69565b8383612651565b5050565b6114ad611e69565b73ffffffffffffffffffffffffffffffffffffffff166114cb6111e0565b73ffffffffffffffffffffffffffffffffffffffff1614611521576040517f08c379a000000000000000000000000000000000000000000000000000000000815260040161151890613c7b565b60405180910390fd5b61152a82611dfd565b611569576040517f08c379a000000000000000000000000000000000000000000000000000000000815260040161156090613bfb565b60405180910390fd5b8060176000848152602001908152602001600020600082825461158c9190613f1c565b92505081905550601760008381526020019081526020016000205481837faa49ebe4d98fa594b8f11c2dba6a2582c4b3bc02108112dff2bbb61046cfd0f560405160405180910390a45050565b6115ea6115e4611e69565b83611f2a565b611629576040517f08c379a000000000000000000000000000000000000000000000000000000000815260040161162090613cbb565b60405180910390fd5b611635848484846127be565b50505050565b611643611e69565b73ffffffffffffffffffffffffffffffffffffffff166116616111e0565b73ffffffffffffffffffffffffffffffffffffffff16146116b7576040517f08c379a00000000000000000000000000000000000000000000000000000000081526004016116ae90613c7b565b60405180910390fd5b600a8160176000858152602001908152602001600020546116d89190613e3b565b1115611719576040517f08c379a0000000000000000000000000000000000000000000000000000000008152600401611710906139fb565b60405180910390fd5b61172282611dfd565b611761576040517f08c379a000000000000000000000000000000000000000000000000000000000815260040161175890613bfb565b60405180910390fd5b806017600084815260200190815260200160002060008282546117849190613e3b565b92505081905550601760008381526020019081526020016000205481837f10e1ebf9c7a47e4e4ff2bc14d0556b003dc0dbb826023862d3b43aef88af5ff460405160405180910390a45050565b60606117dc82611dfd565b61181b576040517f08c379a000000000000000000000000000000000000000000000000000000000815260040161181290613a3b565b60405180910390fd5b61182482611139565b9050919050565b60176020528060005260406000206000915090505481565b61184b611e69565b73ffffffffffffffffffffffffffffffffffffffff166118696111e0565b73ffffffffffffffffffffffffffffffffffffffff16146118bf576040517f08c379a00000000000000000000000000000000000000000000000000000000081526004016118b690613c7b565b60405180910390fd5b6009546118cc600861260f565b111561190d576040517f08c379a000000000000000000000000000000000000000000000000000000000815260040161190490613cfb565b60405180910390fd5b60005b60018261191d9190613f1c565b81116119cf576000600a5411611968576040517f08c379a000000000000000000000000000000000000000000000000000000000815260040161195f90613c5b565b60405180910390fd5b6000611974600861260f565b9050611980338261261d565b61198a600861263b565b600a6017600083815260200190815260200160002081905550600a60008154809291906119b690614018565b91905055505080806119c7906140a5565b915050611910565b5050565b6000600560008473ffffffffffffffffffffffffffffffffffffffff1673ffffffffffffffffffffffffffffffffffffffff16815260200190815260200160002060008373ffffffffffffffffffffffffffffffffffffffff1673ffffffffffffffffffffffffffffffffffffffff16815260200190815260200160002060009054906101000a900460ff16905092915050565b611a6f611e69565b73ffffffffffffffffffffffffffffffffffffffff16611a8d6111e0565b73ffffffffffffffffffffffffffffffffffffffff1614611ae3576040517f08c379a0000000000000000000000000000000000000000000000000000000008152600401611ada90613c7b565b60405180910390fd5b600073ffffffffffffffffffffffffffffffffffffffff168173ffffffffffffffffffffffffffffffffffffffff161415611b53576040517f08c379a0000000000000000000000000000000000000000000000000000000008152600401611b4a90613a5b565b60405180910390fd5b611b5c8161226f565b50565b611b67611e69565b73ffffffffffffffffffffffffffffffffffffffff16611b856111e0565b73ffffffffffffffffffffffffffffffffffffffff1614611bdb576040517f08c379a0000000000000000000000000000000000000000000000000000000008152600401611bd290613c7b565b60405180910390fd5b8051825114611c1f576040517f08c379a0000000000000000000000000000000000000000000000000000000008152600401611c1690613d1b565b60405180910390fd5b60005b8251811015611d8e57611c4e838281518110611c4157611c406141ac565b5b6020026020010151611dfd565b611c8d576040517f08c379a0000000000000000000000000000000000000000000000000000000008152600401611c8490613bfb565b60405180910390fd5b818181518110611ca057611c9f6141ac565b5b602002602001015160176000858481518110611cbf57611cbe6141ac565b5b602002602001015181526020019081526020016000206000828254611ce49190613f1c565b9250508190555060176000848381518110611d0257611d016141ac565b5b6020026020010151815260200190815260200160002054828281518110611d2c57611d2b6141ac565b5b6020026020010151848381518110611d4757611d466141ac565b5b60200260200101517faa49ebe4d98fa594b8f11c2dba6a2582c4b3bc02108112dff2bbb61046cfd0f560405160405180910390a48080611d86906140a5565b915050611c22565b505050565b60007f01ffc9a7000000000000000000000000000000000000000000000000000000007bffffffffffffffffffffffffffffffffffffffffffffffffffffffff1916827bffffffffffffffffffffffffffffffffffffffffffffffffffffffff1916149050919050565b60008073ffffffffffffffffffffffffffffffffffffffff166002600084815260200190815260200160002060009054906101000a900473ffffffffffffffffffffffffffffffffffffffff1673ffffffffffffffffffffffffffffffffffffffff1614159050919050565b600033905090565b816004600083815260200190815260200160002060006101000a81548173ffffffffffffffffffffffffffffffffffffffff021916908373ffffffffffffffffffffffffffffffffffffffff160217905550808273ffffffffffffffffffffffffffffffffffffffff16611ee483610f47565b73ffffffffffffffffffffffffffffffffffffffff167f8c5be1e5ebec7d5bd14f71427d1e84f3dd0314c0f7b2291e5b200ac8c7c3b92560405160405180910390a45050565b6000611f3582611dfd565b611f74576040517f08c379a0000000000000000000000000000000000000000000000000000000008152600401611f6b90613b5b565b60405180910390fd5b6000611f7f83610f47565b90508073ffffffffffffffffffffffffffffffffffffffff168473ffffffffffffffffffffffffffffffffffffffff161480611fee57508373ffffffffffffffffffffffffffffffffffffffff16611fd684610874565b73ffffffffffffffffffffffffffffffffffffffff16145b80611fff5750611ffe81856119d3565b5b91505092915050565b8273ffffffffffffffffffffffffffffffffffffffff1661202882610f47565b73ffffffffffffffffffffffffffffffffffffffff161461207e576040517f08c379a000000000000000000000000000000000000000000000000000000000815260040161207590613a7b565b60405180910390fd5b600073ffffffffffffffffffffffffffffffffffffffff168273ffffffffffffffffffffffffffffffffffffffff1614156120ee576040517f08c379a00000000000000000000000000000000000000000000000000000000081526004016120e590613afb565b60405180910390fd5b6120f983838361281a565b612104600082611e71565b6001600360008573ffffffffffffffffffffffffffffffffffffffff1673ffffffffffffffffffffffffffffffffffffffff16815260200190815260200160002060008282546121549190613f1c565b925050819055506001600360008473ffffffffffffffffffffffffffffffffffffffff1673ffffffffffffffffffffffffffffffffffffffff16815260200190815260200160002060008282546121ab9190613e3b565b92505081905550816002600083815260200190815260200160002060006101000a81548173ffffffffffffffffffffffffffffffffffffffff021916908373ffffffffffffffffffffffffffffffffffffffff160217905550808273ffffffffffffffffffffffffffffffffffffffff168473ffffffffffffffffffffffffffffffffffffffff167fddf252ad1be2c89b69c2b068fc378daa952ba7f163c4a11628f55a4df523b3ef60405160405180910390a461226a8383836128b3565b505050565b6000600760009054906101000a900473ffffffffffffffffffffffffffffffffffffffff16905081600760006101000a81548173ffffffffffffffffffffffffffffffffffffffff021916908373ffffffffffffffffffffffffffffffffffffffff1602179055508173ffffffffffffffffffffffffffffffffffffffff168173ffffffffffffffffffffffffffffffffffffffff167f8be0079c531659141344cd1fd0a4f28419497f9722a3daafe3b4186f6b6457e060405160405180910390a35050565b6060600082141561237d576040518060400160405280600181526020017f30000000000000000000000000000000000000000000000000000000000000008152509050612491565b600082905060005b600082146123af578080612398906140a5565b915050600a826123a89190613e91565b9150612385565b60008167ffffffffffffffff8111156123cb576123ca6141db565b5b6040519080825280601f01601f1916602001820160405280156123fd5781602001600182028036833780820191505090505b5090505b6000851461248a576001826124169190613f1c565b9150600a8561242591906140ee565b60306124319190613e3b565b60f81b818381518110612447576124466141ac565b5b60200101907effffffffffffffffffffffffffffffffffffffffffffffffffffffffffffff1916908160001a905350600a856124839190613e91565b9450612401565b8093505050505b919050565b60606000825114156124b95760405180602001604052806000815250905061260a565b6000604051806060016040528060408152602001614c7f60409139905060006003600285516124e89190613e3b565b6124f29190613e91565b60046124fe9190613ec2565b9050600060208261250f9190613e3b565b67ffffffffffffffff811115612528576125276141db565b5b6040519080825280601f01601f19166020018201604052801561255a5781602001600182028036833780820191505090505b509050818152600183018586518101602084015b818310156125c9576003830192508251603f8160121c168501518253600182019150603f81600c1c168501518253600182019150603f8160061c168501518253600182019150603f811685015182536001820191505061256e565b6003895106600181146125e357600281146125f3576125fe565b613d3d60f01b60028303526125fe565b603d60f81b60018303525b50505050508093505050505b919050565b600081600001549050919050565b6126378282604051806020016040528060008152506128b8565b5050565b6001816000016000828254019250508190555050565b8173ffffffffffffffffffffffffffffffffffffffff168373ffffffffffffffffffffffffffffffffffffffff1614156126c0576040517f08c379a00000000000000000000000000000000000000000000000000000000081526004016126b790613b1b565b60405180910390fd5b80600560008573ffffffffffffffffffffffffffffffffffffffff1673ffffffffffffffffffffffffffffffffffffffff16815260200190815260200160002060008473ffffffffffffffffffffffffffffffffffffffff1673ffffffffffffffffffffffffffffffffffffffff16815260200190815260200160002060006101000a81548160ff0219169083151502179055508173ffffffffffffffffffffffffffffffffffffffff168373ffffffffffffffffffffffffffffffffffffffff167f17307eab39ab6107e8899845ad3d59bd9653f200f220920489ca2b5937696c31836040516127b191906139be565b60405180910390a3505050565b6127c9848484612008565b6127d584848484612913565b612814576040517f08c379a000000000000000000000000000000000000000000000000000000000815260040161280b90613a1b565b60405180910390fd5b50505050565b612825838383612aaa565b600073ffffffffffffffffffffffffffffffffffffffff168273ffffffffffffffffffffffffffffffffffffffff161415801561288f5750600073ffffffffffffffffffffffffffffffffffffffff168373ffffffffffffffffffffffffffffffffffffffff1614155b156128ae57600060176000838152602001908152602001600020819055505b505050565b505050565b6128c28383612aaf565b6128cf6000848484612913565b61290e576040517f08c379a000000000000000000000000000000000000000000000000000000000815260040161290590613a1b565b60405180910390fd5b505050565b60006129348473ffffffffffffffffffffffffffffffffffffffff16612c89565b15612a9d578373ffffffffffffffffffffffffffffffffffffffff1663150b7a0261295d611e69565b8786866040518563ffffffff1660e01b815260040161297f9493929190613972565b602060405180830381600087803b15801561299957600080fd5b505af19250505080156129ca57506040513d601f19601f820116820180604052508101906129c791906130cd565b60015b612a4d573d80600081146129fa576040519150601f19603f3d011682016040523d82523d6000602084013e6129ff565b606091505b50600081511415612a45576040517f08c379a0000000000000000000000000000000000000000000000000000000008152600401612a3c90613a1b565b60405180910390fd5b805181602001fd5b63150b7a0260e01b7bffffffffffffffffffffffffffffffffffffffffffffffffffffffff1916817bffffffffffffffffffffffffffffffffffffffffffffffffffffffff191614915050612aa2565b600190505b949350505050565b505050565b600073ffffffffffffffffffffffffffffffffffffffff168273ffffffffffffffffffffffffffffffffffffffff161415612b1f576040517f08c379a0000000000000000000000000000000000000000000000000000000008152600401612b1690613c1b565b60405180910390fd5b612b2881611dfd565b15612b68576040517f08c379a0000000000000000000000000000000000000000000000000000000008152600401612b5f90613a9b565b60405180910390fd5b612b746000838361281a565b6001600360008473ffffffffffffffffffffffffffffffffffffffff1673ffffffffffffffffffffffffffffffffffffffff1681526020019081526020016000206000828254612bc49190613e3b565b92505081905550816002600083815260200190815260200160002060006101000a81548173ffffffffffffffffffffffffffffffffffffffff021916908373ffffffffffffffffffffffffffffffffffffffff160217905550808273ffffffffffffffffffffffffffffffffffffffff16600073ffffffffffffffffffffffffffffffffffffffff167fddf252ad1be2c89b69c2b068fc378daa952ba7f163c4a11628f55a4df523b3ef60405160405180910390a4612c85600083836128b3565b5050565b6000808273ffffffffffffffffffffffffffffffffffffffff163b119050919050565b6000612cbf612cba84613d7b565b613d56565b90508083825260208201905082856020860282011115612ce257612ce161420f565b5b60005b85811015612d125781612cf88882612e23565b845260208401935060208301925050600181019050612ce5565b5050509392505050565b6000612d2f612d2a84613da7565b613d56565b905082815260208101848484011115612d4b57612d4a614214565b5b612d56848285613fd6565b509392505050565b600081359050612d6d81614c0b565b92915050565b600081359050612d8281614c22565b92915050565b600082601f830112612d9d57612d9c61420a565b5b8135612dad848260208601612cac565b91505092915050565b600081359050612dc581614c39565b92915050565b600081359050612dda81614c50565b92915050565b600081519050612def81614c50565b92915050565b600082601f830112612e0a57612e0961420a565b5b8135612e1a848260208601612d1c565b91505092915050565b600081359050612e3281614c67565b92915050565b600060208284031215612e4e57612e4d61421e565b5b6000612e5c84828501612d5e565b91505092915050565b600060208284031215612e7b57612e7a61421e565b5b6000612e8984828501612d73565b91505092915050565b60008060408385031215612ea957612ea861421e565b5b6000612eb785828601612d5e565b9250506020612ec885828601612d5e565b9150509250929050565b600080600060608486031215612eeb57612eea61421e565b5b6000612ef986828701612d5e565b9350506020612f0a86828701612d5e565b9250506040612f1b86828701612e23565b9150509250925092565b60008060008060808587031215612f3f57612f3e61421e565b5b6000612f4d87828801612d5e565b9450506020612f5e87828801612d5e565b9350506040612f6f87828801612e23565b925050606085013567ffffffffffffffff811115612f9057612f8f614219565b5b612f9c87828801612df5565b91505092959194509250565b60008060408385031215612fbf57612fbe61421e565b5b6000612fcd85828601612d5e565b9250506020612fde85828601612db6565b9150509250929050565b60008060408385031215612fff57612ffe61421e565b5b600061300d85828601612d5e565b925050602061301e85828601612e23565b9150509250929050565b6000806040838503121561303f5761303e61421e565b5b600083013567ffffffffffffffff81111561305d5761305c614219565b5b61306985828601612d88565b925050602083013567ffffffffffffffff81111561308a57613089614219565b5b61309685828601612d88565b9150509250929050565b6000602082840312156130b6576130b561421e565b5b60006130c484828501612dcb565b91505092915050565b6000602082840312156130e3576130e261421e565b5b60006130f184828501612de0565b91505092915050565b6000602082840312156131105761310f61421e565b5b600061311e84828501612e23565b91505092915050565b6000806040838503121561313e5761313d61421e565b5b600061314c85828601612e23565b925050602061315d85828601612e23565b9150509250929050565b61317081613f50565b82525050565b61317f81613f74565b82525050565b600061319082613ded565b61319a8185613e03565b93506131aa818560208601613fe5565b6131b381614223565b840191505092915050565b60006131c982613df8565b6131d38185613e1f565b93506131e3818560208601613fe5565b6131ec81614223565b840191505092915050565b600061320282613df8565b61320c8185613e30565b935061321c818560208601613fe5565b80840191505092915050565b6000815461323581614042565b61323f8186613e30565b9450600182166000811461325a576001811461326b5761329e565b60ff1983168652818601935061329e565b61327485613dd8565b60005b8381101561329657815481890152600182019150602081019050613277565b838801955050505b50505092915050565b60006132b4600f83613e1f565b91506132bf82614234565b602082019050919050565b60006132d7600783613e30565b91506132e28261425d565b600782019050919050565b60006132fa603283613e1f565b915061330582614286565b604082019050919050565b600061331d603083613e1f565b9150613328826142d5565b604082019050919050565b6000613340602683613e1f565b915061334b82614324565b604082019050919050565b6000613363600283613e30565b915061336e82614373565b600282019050919050565b6000613386602583613e1f565b91506133918261439c565b604082019050919050565b60006133a9601c83613e1f565b91506133b4826143eb565b602082019050919050565b60006133cc602b83613e30565b91506133d782614414565b602b82019050919050565b60006133ef600383613e30565b91506133fa82614463565b600382019050919050565b6000613412601f83613e30565b915061341d8261448c565b601f82019050919050565b6000613435601483613e1f565b9150613440826144b5565b602082019050919050565b6000613458601483613e1f565b9150613463826144de565b602082019050919050565b600061347b602483613e1f565b915061348682614507565b604082019050919050565b600061349e601983613e1f565b91506134a982614556565b602082019050919050565b60006134c1601183613e30565b91506134cc8261457f565b601182019050919050565b60006134e4601983613e1f565b91506134ef826145a8565b602082019050919050565b6000613507602c83613e1f565b9150613512826145d1565b604082019050919050565b600061352a600e83613e1f565b915061353582614620565b602082019050919050565b600061354d603883613e1f565b915061355882614649565b604082019050919050565b6000613570602a83613e1f565b915061357b82614698565b604082019050919050565b6000613593602983613e1f565b915061359e826146e7565b604082019050919050565b60006135b6600983613e30565b91506135c182614736565b600982019050919050565b60006135d9600283613e30565b91506135e48261475f565b600282019050919050565b60006135fc600e83613e1f565b915061360782614788565b602082019050919050565b600061361f602983613e30565b915061362a826147b1565b602982019050919050565b6000613642602083613e1f565b915061364d82614800565b602082019050919050565b6000613665600283613e30565b915061367082614829565b600282019050919050565b6000613688602c83613e1f565b915061369382614852565b604082019050919050565b60006136ab601883613e1f565b91506136b6826148a1565b602082019050919050565b60006136ce602083613e1f565b91506136d9826148ca565b602082019050919050565b60006136f1600183613e30565b91506136fc826148f3565b600182019050919050565b600061371561013283613e30565b91506137208261491c565b61013282019050919050565b6000613739602183613e1f565b915061374482614a9d565b604082019050919050565b600061375c601d83613e30565b915061376782614aec565b601d82019050919050565b600061377f600083613e14565b915061378a82614b15565b600082019050919050565b60006137a2603183613e1f565b91506137ad82614b18565b604082019050919050565b60006137c5601f83613e1f565b91506137d082614b67565b602082019050919050565b60006137e8600e83613e30565b91506137f382614b90565b600e82019050919050565b600061380b601b83613e1f565b915061381682614bb9565b602082019050919050565b600061382e601083613e1f565b915061383982614be2565b602082019050919050565b61384d81613fcc565b82525050565b600061385e82613612565b915061386982613707565b9150613874826137db565b915061387f826136e4565b915061388a82613405565b915061389682876131f7565b91506138a1826133e2565b91506138ac826133bf565b91506138b882866131f7565b91506138c3826132ca565b91506138ce82613658565b91506138d9826135a9565b91506138e58285613228565b91506138f082613356565b91506138fb826134b4565b91506139078284613228565b9150613912826135cc565b915081905095945050505050565b600061392b8261374f565b915061393782846131f7565b915081905092915050565b600061394d82613772565b9150819050919050565b600060208201905061396c6000830184613167565b92915050565b60006080820190506139876000830187613167565b6139946020830186613167565b6139a16040830185613844565b81810360608301526139b38184613185565b905095945050505050565b60006020820190506139d36000830184613176565b92915050565b600060208201905081810360008301526139f381846131be565b905092915050565b60006020820190508181036000830152613a14816132a7565b9050919050565b60006020820190508181036000830152613a34816132ed565b9050919050565b60006020820190508181036000830152613a5481613310565b9050919050565b60006020820190508181036000830152613a7481613333565b9050919050565b60006020820190508181036000830152613a9481613379565b9050919050565b60006020820190508181036000830152613ab48161339c565b9050919050565b60006020820190508181036000830152613ad481613428565b9050919050565b60006020820190508181036000830152613af48161344b565b9050919050565b60006020820190508181036000830152613b148161346e565b9050919050565b60006020820190508181036000830152613b3481613491565b9050919050565b60006020820190508181036000830152613b54816134d7565b9050919050565b60006020820190508181036000830152613b74816134fa565b9050919050565b60006020820190508181036000830152613b948161351d565b9050919050565b60006020820190508181036000830152613bb481613540565b9050919050565b60006020820190508181036000830152613bd481613563565b9050919050565b60006020820190508181036000830152613bf481613586565b9050919050565b60006020820190508181036000830152613c14816135ef565b9050919050565b60006020820190508181036000830152613c3481613635565b9050919050565b60006020820190508181036000830152613c548161367b565b9050919050565b60006020820190508181036000830152613c748161369e565b9050919050565b60006020820190508181036000830152613c94816136c1565b9050919050565b60006020820190508181036000830152613cb48161372c565b9050919050565b60006020820190508181036000830152613cd481613795565b9050919050565b60006020820190508181036000830152613cf4816137b8565b9050919050565b60006020820190508181036000830152613d14816137fe565b9050919050565b60006020820190508181036000830152613d3481613821565b9050919050565b6000602082019050613d506000830184613844565b92915050565b6000613d60613d71565b9050613d6c8282614074565b919050565b6000604051905090565b600067ffffffffffffffff821115613d9657613d956141db565b5b602082029050602081019050919050565b600067ffffffffffffffff821115613dc257613dc16141db565b5b613dcb82614223565b9050602081019050919050565b60008190508160005260206000209050919050565b600081519050919050565b600081519050919050565b600082825260208201905092915050565b600081905092915050565b600082825260208201905092915050565b600081905092915050565b6000613e4682613fcc565b9150613e5183613fcc565b9250827fffffffffffffffffffffffffffffffffffffffffffffffffffffffffffffffff03821115613e8657613e8561411f565b5b828201905092915050565b6000613e9c82613fcc565b9150613ea783613fcc565b925082613eb757613eb661414e565b5b828204905092915050565b6000613ecd82613fcc565b9150613ed883613fcc565b9250817fffffffffffffffffffffffffffffffffffffffffffffffffffffffffffffffff0483118215151615613f1157613f1061411f565b5b828202905092915050565b6000613f2782613fcc565b9150613f3283613fcc565b925082821015613f4557613f4461411f565b5b828203905092915050565b6000613f5b82613fac565b9050919050565b6000613f6d82613fac565b9050919050565b60008115159050919050565b60007fffffffff0000000000000000000000000000000000000000000000000000000082169050919050565b600073ffffffffffffffffffffffffffffffffffffffff82169050919050565b6000819050919050565b82818337600083830152505050565b60005b83811015614003578082015181840152602081019050613fe8565b83811115614012576000848401525b50505050565b600061402382613fcc565b915060008214156140375761403661411f565b5b600182039050919050565b6000600282049050600182168061405a57607f821691505b6020821081141561406e5761406d61417d565b5b50919050565b61407d82614223565b810181811067ffffffffffffffff8211171561409c5761409b6141db565b5b80604052505050565b60006140b082613fcc565b91507fffffffffffffffffffffffffffffffffffffffffffffffffffffffffffffffff8214156140e3576140e261411f565b5b600182019050919050565b60006140f982613fcc565b915061410483613fcc565b9250826141145761411361414e565b5b828206905092915050565b7f4e487b7100000000000000000000000000000000000000000000000000000000600052601160045260246000fd5b7f4e487b7100000000000000000000000000000000000000000000000000000000600052601260045260246000fd5b7f4e487b7100000000000000000000000000000000000000000000000000000000600052602260045260246000fd5b7f4e487b7100000000000000000000000000000000000000000000000000000000600052603260045260246000fd5b7f4e487b7100000000000000000000000000000000000000000000000000000000600052604160045260246000fd5b600080fd5b600080fd5b600080fd5b600080fd5b600080fd5b6000601f19601f8301169050919050565b7f6d6178206c6576656c2069732031300000000000000000000000000000000000600082015250565b7f2f32303030227d00000000000000000000000000000000000000000000000000600082015250565b7f4552433732313a207472616e7366657220746f206e6f6e20455243373231526560008201527f63656976657220696d706c656d656e7465720000000000000000000000000000602082015250565b7f436c656172616e63652043617264733a2055524920717565727920666f72206e60008201527f6f6e6578697374656e7420746f6b656e00000000000000000000000000000000602082015250565b7f4f776e61626c653a206e6577206f776e657220697320746865207a65726f206160008201527f6464726573730000000000000000000000000000000000000000000000000000602082015250565b7f222c000000000000000000000000000000000000000000000000000000000000600082015250565b7f4552433732313a207472616e736665722066726f6d20696e636f72726563742060008201527f6f776e6572000000000000000000000000000000000000000000000000000000602082015250565b7f4552433732313a20746f6b656e20616c7265616479206d696e74656400000000600082015250565b7f7b2274726169745f74797065223a224d656d62657273686970204e756d62657260008201527f222c2276616c7565223a22000000000000000000000000000000000000000000602082015250565b7f227d2c0000000000000000000000000000000000000000000000000000000000600082015250565b7f7b2274726169745f74797065223a224c6576656c222c2276616c7565223a2200600082015250565b7f496e636f72726563742065746820616d6f756e74000000000000000000000000600082015250565b7f4661696c656420746f2073656e64204574686572000000000000000000000000600082015250565b7f4552433732313a207472616e7366657220746f20746865207a65726f2061646460008201527f7265737300000000000000000000000000000000000000000000000000000000602082015250565b7f4552433732313a20617070726f766520746f2063616c6c657200000000000000600082015250565b7f22616e696d6174696f6e5f75726c223a22000000000000000000000000000000600082015250565b7f63616e206f6e6c79206d696e74203520617420612074696d6500000000000000600082015250565b7f4552433732313a206f70657261746f7220717565727920666f72206e6f6e657860008201527f697374656e7420746f6b656e0000000000000000000000000000000000000000602082015250565b7f4e6f7420656e6f75676820657468000000000000000000000000000000000000600082015250565b7f4552433732313a20617070726f76652063616c6c6572206973206e6f74206f7760008201527f6e6572206e6f7220617070726f76656420666f7220616c6c0000000000000000602082015250565b7f4552433732313a2062616c616e636520717565727920666f7220746865207a6560008201527f726f206164647265737300000000000000000000000000000000000000000000602082015250565b7f4552433732313a206f776e657220717565727920666f72206e6f6e657869737460008201527f656e7420746f6b656e0000000000000000000000000000000000000000000000602082015250565b7f22696d616765223a220000000000000000000000000000000000000000000000600082015250565b7f227d000000000000000000000000000000000000000000000000000000000000600082015250565b7f6e6f6e6578697374656e74206964000000000000000000000000000000000000600082015250565b7f7b226e616d65223a2253656b657220466163746f727920303031202d2044414f60008201527f204d656d626572222c0000000000000000000000000000000000000000000000602082015250565b7f4552433732313a206d696e7420746f20746865207a65726f2061646472657373600082015250565b7f5d2c000000000000000000000000000000000000000000000000000000000000600082015250565b7f4552433732313a20617070726f76656420717565727920666f72206e6f6e657860008201527f697374656e7420746f6b656e0000000000000000000000000000000000000000602082015250565b7f64616f20726573657276652066756c6c79206d696e7465640000000000000000600082015250565b7f4f776e61626c653a2063616c6c6572206973206e6f7420746865206f776e6572600082015250565b7f5b00000000000000000000000000000000000000000000000000000000000000600082015250565b7f226465736372697074696f6e223a224d656d6265727368697020746f2074686560008201527f2053656b657220466163746f7279203030312044414f2e20486f6c64696e672060208201527f746869732063617264207365637572657320796f7572206d656d62657273686960408201527f702073746174757320616e64206f666665727320766f74696e6720726967687460608201527f73206f6e2070726f706f73616c732072656c6174656420746f2074686520303060808201527f31204c6f7320416e67656c657320466163746f727920616e642074686520303060a08201527f30204d657461766572736520466163746f72792e204c6576656c20757020746860c08201527f6973206361726420746f2072656365697665206d6f7265207065726b7320616e60e08201527f6420676f7665726e616e6365207269676874732077697468696e2074686520306101008201527f303120616e64203030302044414f732e222c000000000000000000000000000061012082015250565b7f4552433732313a20617070726f76616c20746f2063757272656e74206f776e6560008201527f7200000000000000000000000000000000000000000000000000000000000000602082015250565b7f646174613a6170706c69636174696f6e2f6a736f6e3b6261736536342c000000600082015250565b50565b7f4552433732313a207472616e736665722063616c6c6572206973206e6f74206f60008201527f776e6572206e6f7220617070726f766564000000000000000000000000000000602082015250565b7f576974686472617720616464726573732063616e6e6f74206265207a65726f00600082015250565b7f2261747472696275746573223a20000000000000000000000000000000000000600082015250565b7f6d696e74696e6720686173207265616368656420697473206d61780000000000600082015250565b7f6c656e677468206d6973736d6174636800000000000000000000000000000000600082015250565b614c1481613f50565b8114614c1f57600080fd5b50565b614c2b81613f62565b8114614c3657600080fd5b50565b614c4281613f74565b8114614c4d57600080fd5b50565b614c5981613f80565b8114614c6457600080fd5b50565b614c7081613fcc565b8114614c7b57600080fd5b5056fe4142434445464748494a4b4c4d4e4f505152535455565758595a6162636465666768696a6b6c6d6e6f707172737475767778797a303132333435363738392b2fa2646970667358221220aae92ce10e6b5e2bf01b91ff021be7725ee9256d1799d7f81a74fa0f37aeeb5264736f6c6343000806003368747470733a2f2f73656b6572666163746f72792e6d7970696e6174612e636c6f75642f697066732f516d6651465436377265577a6439444b6f68746d43384566646e725146456d374e34634853435954397348755a4368747470733a2f2f73656b6572666163746f72792e6d7970696e6174612e636c6f75642f697066732f516d514648574a48466a594d6f677469345845713942414c62756f736a6b6458544b356a47796b64434b6f48557453656b657220466163746f727920436c656172616e63652043617264732030303168747470733a2f2f73656b6572666163746f72792e6d7970696e6174612e636c6f75642f697066732f516d553158574877534d78393564595479597878364a61553169383154447a635746475946594e5532423151564868747470733a2f2f73656b6572666163746f72792e6d7970696e6174612e636c6f75642f697066732f516d523677525748394e33734e6875726f4247465a4d52333747344d4538357132357454595a6676617a3352784d68747470733a2f2f73656b6572666163746f72792e6d7970696e6174612e636c6f75642f697066732f516d6567466861457770696f4b627547566f3363625147766f63364661754d614b79637a4645665871745741796a68747470733a2f2f73656b6572666163746f72792e6d7970696e6174612e636c6f75642f697066732f516d5354433267546970755754504278447645525a79703141786f6937766757506e7243583579724878546d4b7068747470733a2f2f73656b6572666163746f72792e6d7970696e6174612e636c6f75642f697066732f516d556b757978794c523955736b696842634b42706b7848563550757a6d75434e7770316a50747938313150775168747470733a2f2f73656b6572666163746f72792e6d7970696e6174612e636c6f75642f697066732f516d586b614e3744755853463258326847463774534579546e44794d6f43694d6d76714c70766a68315a5347455668747470733a2f2f73656b6572666163746f72792e6d7970696e6174612e636c6f75642f697066732f516d4e594b544778654d576f36344b5438797a587a5a4c684d5332465235644751744c786b6b6b5448414a61676968747470733a2f2f73656b6572666163746f72792e6d7970696e6174612e636c6f75642f697066732f516d54506d45424e4a545666446b414b376544455a636571587a513337636f33514d314573735a4b61317864694268747470733a2f2f73656b6572666163746f72792e6d7970696e6174612e636c6f75642f697066732f516d5769693654646d564a4169633562357165557232755844626435697a6441443845596b393338324577376342",
  "linkReferences": {},
  "deployedLinkReferences": {}
}