{
  "_format": "hh-sol-artifact-1",
  "contractName": "TopClearanceCard",
  "sourceName": "contracts/TopClearanceCard.sol",
  "abi": [
    {
      "inputs": [],
      "stateMutability": "nonpayable",
      "type": "constructor"
    },
    {
      "anonymous": false,
      "inputs": [
        {
          "indexed": true,
          "internalType": "address",
          "name": "owner",
          "type": "address"
        },
        {
          "indexed": true,
          "internalType": "address",
          "name": "approved",
          "type": "address"
        },
        {
          "indexed": true,
          "internalType": "uint256",
          "name": "tokenId",
          "type": "uint256"
        }
      ],
      "name": "Approval",
      "type": "event"
    },
    {
      "anonymous": false,
      "inputs": [
        {
          "indexed": true,
          "internalType": "address",
          "name": "owner",
          "type": "address"
        },
        {
          "indexed": true,
          "internalType": "address",
          "name": "operator",
          "type": "address"
        },
        {
          "indexed": false,
          "internalType": "bool",
          "name": "approved",
          "type": "bool"
        }
      ],
      "name": "ApprovalForAll",
      "type": "event"
    },
    {
      "anonymous": false,
      "inputs": [
        {
          "indexed": true,
          "internalType": "uint256",
          "name": "id",
          "type": "uint256"
        },
        {
          "indexed": true,
          "internalType": "uint256",
          "name": "levels",
          "type": "uint256"
        },
        {
          "indexed": true,
          "internalType": "uint256",
          "name": "newLevel",
          "type": "uint256"
        }
      ],
      "name": "CardLevelDown",
      "type": "event"
    },
    {
      "anonymous": false,
      "inputs": [
        {
          "indexed": true,
          "internalType": "uint256",
          "name": "id",
          "type": "uint256"
        },
        {
          "indexed": true,
          "internalType": "uint256",
          "name": "levels",
          "type": "uint256"
        },
        {
          "indexed": true,
          "internalType": "uint256",
          "name": "newLevel",
          "type": "uint256"
        }
      ],
      "name": "CardLevelUp",
      "type": "event"
    },
    {
      "anonymous": false,
      "inputs": [
        {
          "indexed": true,
          "internalType": "address",
          "name": "previousOwner",
          "type": "address"
        },
        {
          "indexed": true,
          "internalType": "address",
          "name": "newOwner",
          "type": "address"
        }
      ],
      "name": "OwnershipTransferred",
      "type": "event"
    },
    {
      "anonymous": false,
      "inputs": [
        {
          "indexed": true,
          "internalType": "address",
          "name": "from",
          "type": "address"
        },
        {
          "indexed": true,
          "internalType": "address",
          "name": "to",
          "type": "address"
        },
        {
          "indexed": true,
          "internalType": "uint256",
          "name": "tokenId",
          "type": "uint256"
        }
      ],
      "name": "Transfer",
      "type": "event"
    },
    {
      "inputs": [
        {
          "internalType": "uint256",
          "name": "",
          "type": "uint256"
        }
      ],
      "name": "URIs",
      "outputs": [
        {
          "internalType": "string",
          "name": "",
          "type": "string"
        }
      ],
      "stateMutability": "view",
      "type": "function"
    },
    {
      "inputs": [
        {
          "internalType": "address",
          "name": "to",
          "type": "address"
        },
        {
          "internalType": "uint256",
          "name": "tokenId",
          "type": "uint256"
        }
      ],
      "name": "approve",
      "outputs": [],
      "stateMutability": "nonpayable",
      "type": "function"
    },
    {
      "inputs": [
        {
          "internalType": "address",
          "name": "owner",
          "type": "address"
        }
      ],
      "name": "balanceOf",
      "outputs": [
        {
          "internalType": "uint256",
          "name": "",
          "type": "uint256"
        }
      ],
      "stateMutability": "view",
      "type": "function"
    },
    {
      "inputs": [
        {
          "internalType": "uint256",
          "name": "",
          "type": "uint256"
        }
      ],
      "name": "cardLevels",
      "outputs": [
        {
          "internalType": "uint256",
          "name": "",
          "type": "uint256"
        }
      ],
      "stateMutability": "view",
      "type": "function"
    },
    {
      "inputs": [],
      "name": "daoReserve",
      "outputs": [
        {
          "internalType": "uint256",
          "name": "",
          "type": "uint256"
        }
      ],
      "stateMutability": "view",
      "type": "function"
    },
    {
      "inputs": [
        {
          "internalType": "uint256",
          "name": "_id",
          "type": "uint256"
        }
      ],
      "name": "generateCardURI",
      "outputs": [
        {
          "internalType": "string",
          "name": "",
          "type": "string"
        }
      ],
      "stateMutability": "view",
      "type": "function"
    },
    {
      "inputs": [
        {
          "internalType": "uint256",
          "name": "tokenId",
          "type": "uint256"
        }
      ],
      "name": "getApproved",
      "outputs": [
        {
          "internalType": "address",
          "name": "",
          "type": "address"
        }
      ],
      "stateMutability": "view",
      "type": "function"
    },
    {
      "inputs": [
        {
          "internalType": "address",
          "name": "owner",
          "type": "address"
        },
        {
          "internalType": "address",
          "name": "operator",
          "type": "address"
        }
      ],
      "name": "isApprovedForAll",
      "outputs": [
        {
          "internalType": "bool",
          "name": "",
          "type": "bool"
        }
      ],
      "stateMutability": "view",
      "type": "function"
    },
    {
      "inputs": [
        {
          "internalType": "uint256",
          "name": "_id",
          "type": "uint256"
        },
        {
          "internalType": "uint256",
          "name": "_levels",
          "type": "uint256"
        }
      ],
      "name": "levelDownCard",
      "outputs": [],
      "stateMutability": "nonpayable",
      "type": "function"
    },
    {
      "inputs": [
        {
          "internalType": "uint256[]",
          "name": "_ids",
          "type": "uint256[]"
        },
        {
          "internalType": "uint256[]",
          "name": "_levels",
          "type": "uint256[]"
        }
      ],
      "name": "levelDownCardBatch",
      "outputs": [],
      "stateMutability": "nonpayable",
      "type": "function"
    },
    {
      "inputs": [
        {
          "internalType": "uint256",
          "name": "_id",
          "type": "uint256"
        },
        {
          "internalType": "uint256",
          "name": "_levels",
          "type": "uint256"
        }
      ],
      "name": "levelUpCard",
      "outputs": [],
      "stateMutability": "nonpayable",
      "type": "function"
    },
    {
      "inputs": [
        {
          "internalType": "uint256[]",
          "name": "_ids",
          "type": "uint256[]"
        },
        {
          "internalType": "uint256[]",
          "name": "_levels",
          "type": "uint256[]"
        }
      ],
      "name": "levelUpCardBatch",
      "outputs": [],
      "stateMutability": "nonpayable",
      "type": "function"
    },
    {
      "inputs": [
        {
          "internalType": "uint256",
          "name": "_amount",
          "type": "uint256"
        }
      ],
      "name": "mint",
      "outputs": [],
      "stateMutability": "payable",
      "type": "function"
    },
    {
      "inputs": [
        {
          "internalType": "uint256",
          "name": "_amount",
          "type": "uint256"
        }
      ],
      "name": "mintDAO",
      "outputs": [],
      "stateMutability": "nonpayable",
      "type": "function"
    },
    {
      "inputs": [],
      "name": "name",
      "outputs": [
        {
          "internalType": "string",
          "name": "",
          "type": "string"
        }
      ],
      "stateMutability": "view",
      "type": "function"
    },
    {
      "inputs": [],
      "name": "owner",
      "outputs": [
        {
          "internalType": "address",
          "name": "",
          "type": "address"
        }
      ],
      "stateMutability": "view",
      "type": "function"
    },
    {
      "inputs": [
        {
          "internalType": "uint256",
          "name": "tokenId",
          "type": "uint256"
        }
      ],
      "name": "ownerOf",
      "outputs": [
        {
          "internalType": "address",
          "name": "",
          "type": "address"
        }
      ],
      "stateMutability": "view",
      "type": "function"
    },
    {
      "inputs": [],
      "name": "price",
      "outputs": [
        {
          "internalType": "uint256",
          "name": "",
          "type": "uint256"
        }
      ],
      "stateMutability": "view",
      "type": "function"
    },
    {
      "inputs": [],
      "name": "renounceOwnership",
      "outputs": [],
      "stateMutability": "nonpayable",
      "type": "function"
    },
    {
      "inputs": [
        {
          "internalType": "address",
          "name": "from",
          "type": "address"
        },
        {
          "internalType": "address",
          "name": "to",
          "type": "address"
        },
        {
          "internalType": "uint256",
          "name": "tokenId",
          "type": "uint256"
        }
      ],
      "name": "safeTransferFrom",
      "outputs": [],
      "stateMutability": "nonpayable",
      "type": "function"
    },
    {
      "inputs": [
        {
          "internalType": "address",
          "name": "from",
          "type": "address"
        },
        {
          "internalType": "address",
          "name": "to",
          "type": "address"
        },
        {
          "internalType": "uint256",
          "name": "tokenId",
          "type": "uint256"
        },
        {
          "internalType": "bytes",
          "name": "_data",
          "type": "bytes"
        }
      ],
      "name": "safeTransferFrom",
      "outputs": [],
      "stateMutability": "nonpayable",
      "type": "function"
    },
    {
      "inputs": [
        {
          "internalType": "address",
          "name": "operator",
          "type": "address"
        },
        {
          "internalType": "bool",
          "name": "approved",
          "type": "bool"
        }
      ],
      "name": "setApprovalForAll",
      "outputs": [],
      "stateMutability": "nonpayable",
      "type": "function"
    },
    {
      "inputs": [
        {
          "internalType": "bytes4",
          "name": "interfaceId",
          "type": "bytes4"
        }
      ],
      "name": "supportsInterface",
      "outputs": [
        {
          "internalType": "bool",
          "name": "",
          "type": "bool"
        }
      ],
      "stateMutability": "view",
      "type": "function"
    },
    {
      "inputs": [],
      "name": "symbol",
      "outputs": [
        {
          "internalType": "string",
          "name": "",
          "type": "string"
        }
      ],
      "stateMutability": "view",
      "type": "function"
    },
    {
      "inputs": [
        {
          "internalType": "uint256",
          "name": "tokenId",
          "type": "uint256"
        }
      ],
      "name": "tokenURI",
      "outputs": [
        {
          "internalType": "string",
          "name": "",
          "type": "string"
        }
      ],
      "stateMutability": "view",
      "type": "function"
    },
    {
      "inputs": [],
      "name": "totalEditions",
      "outputs": [
        {
          "internalType": "uint256",
          "name": "",
          "type": "uint256"
        }
      ],
      "stateMutability": "view",
      "type": "function"
    },
    {
      "inputs": [],
      "name": "totalSupply",
      "outputs": [
        {
          "internalType": "uint256",
          "name": "",
          "type": "uint256"
        }
      ],
      "stateMutability": "view",
      "type": "function"
    },
    {
      "inputs": [
        {
          "internalType": "address",
          "name": "from",
          "type": "address"
        },
        {
          "internalType": "address",
          "name": "to",
          "type": "address"
        },
        {
          "internalType": "uint256",
          "name": "tokenId",
          "type": "uint256"
        }
      ],
      "name": "transferFrom",
      "outputs": [],
      "stateMutability": "nonpayable",
      "type": "function"
    },
    {
      "inputs": [
        {
          "internalType": "address",
          "name": "newOwner",
          "type": "address"
        }
      ],
      "name": "transferOwnership",
      "outputs": [],
      "stateMutability": "nonpayable",
      "type": "function"
    },
    {
      "inputs": [
        {
          "internalType": "address payable",
          "name": "withdrawAddress",
          "type": "address"
        }
      ],
      "name": "withdraw",
      "outputs": [],
      "stateMutability": "payable",
      "type": "function"
    }
  ],
  "bytecode": "0x60806040526103e86009556064600a556706f05b59d3b20000600b5560405180610140016040528060405180608001604052806057815260200162005475605791398152602001604051806080016040528060578152602001620053c7605791398152602001604051806080016040528060578152602001620056496057913981526020016040518060800160405280605781526020016200541e605791398152602001604051806080016040528060578152602001620055f26057913981526020016040518060800160405280605781526020016200559b605791398152602001604051806080016040528060578152602001620054cc605791398152602001604051806080016040528060578152602001620056a0605791398152602001604051806080016040528060578152602001620056f76057913981526020016040518060800160405280605781526020016200552360579139815250600c90600a6200016d92919062000319565b503480156200017b57600080fd5b506040518060600160405280602181526020016200557a602191396040518060400160405280600581526020017f5346544f500000000000000000000000000000000000000000000000000000008152508160009080519060200190620001e492919062000373565b508060019080519060200190620001fd92919062000373565b50505062000220620002146200024b60201b60201c565b6200025360201b60201c565b62000245737735b940d673344845ac239cdddde1d73b5d56276200025360201b60201c565b620004f6565b600033905090565b6000600760009054906101000a900473ffffffffffffffffffffffffffffffffffffffff16905081600760006101000a81548173ffffffffffffffffffffffffffffffffffffffff021916908373ffffffffffffffffffffffffffffffffffffffff1602179055508173ffffffffffffffffffffffffffffffffffffffff168173ffffffffffffffffffffffffffffffffffffffff167f8be0079c531659141344cd1fd0a4f28419497f9722a3daafe3b4186f6b6457e060405160405180910390a35050565b82600a810192821562000360579160200282015b828111156200035f5782518290805190602001906200034e92919062000373565b50916020019190600101906200032d565b5b5090506200036f919062000404565b5090565b828054620003819062000491565b90600052602060002090601f016020900481019282620003a55760008555620003f1565b82601f10620003c057805160ff1916838001178555620003f1565b82800160010185558215620003f1579182015b82811115620003f0578251825591602001919060010190620003d3565b5b5090506200040091906200042c565b5090565b5b808211156200042857600081816200041e91906200044b565b5060010162000405565b5090565b5b80821115620004475760008160009055506001016200042d565b5090565b508054620004599062000491565b6000825580601f106200046d57506200048e565b601f0160209004906000526020600020908101906200048d91906200042c565b5b50565b60006002820490506001821680620004aa57607f821691505b60208210811415620004c157620004c0620004c7565b5b50919050565b7f4e487b7100000000000000000000000000000000000000000000000000000000600052602260045260246000fd5b614ec180620005066000396000f3fe6080604052600436106101c25760003560e01c80638da5cb5b116100f7578063b88d4fde11610095578063de60cc5f11610064578063de60cc5f14610648578063e985e9c514610671578063f2fde38b146106ae578063f820a53d146106d7576101c2565b8063b88d4fde1461057c578063c0435665146105a5578063c87b56dd146105ce578063d4101d311461060b576101c2565b8063a035b1fe116100d1578063a035b1fe146104e3578063a0712d681461050e578063a22cb4651461052a578063adc149cb14610553576101c2565b80638da5cb5b14610450578063953f97aa1461047b57806395d89b41146104b8576101c2565b806342842e0e116101645780636352211e1161013e5780636352211e1461038257806370a08231146103bf578063715018a6146103fc5780637cb6e9d714610413576101c2565b806342842e0e1461031257806351cff8d91461033b57806351d329dc14610357576101c2565b8063095ea7b3116101a0578063095ea7b31461026c5780632077b2231461029557806323b872dd146102c05780633ae1c05e146102e9576101c2565b806301ffc9a7146101c757806306fdde0314610204578063081812fc1461022f575b600080fd5b3480156101d357600080fd5b506101ee60048036038101906101e99190613196565b610700565b6040516101fb9190613afa565b60405180910390f35b34801561021057600080fd5b506102196107e2565b6040516102269190613b15565b60405180910390f35b34801561023b57600080fd5b50610256600480360381019061025191906131f0565b610874565b6040516102639190613a93565b60405180910390f35b34801561027857600080fd5b50610293600480360381019061028e91906130de565b6108f9565b005b3480156102a157600080fd5b506102aa610a11565b6040516102b79190613eb7565b60405180910390f35b3480156102cc57600080fd5b506102e760048036038101906102e29190612fc8565b610a17565b005b3480156102f557600080fd5b50610310600480360381019061030b919061311e565b610a77565b005b34801561031e57600080fd5b5061033960048036038101906103349190612fc8565b610d41565b005b61035560048036038101906103509190612f5b565b610d61565b005b34801561036357600080fd5b5061036c610f41565b6040516103799190613eb7565b60405180910390f35b34801561038e57600080fd5b506103a960048036038101906103a491906131f0565b610f47565b6040516103b69190613a93565b60405180910390f35b3480156103cb57600080fd5b506103e660048036038101906103e19190612f2e565b610ff9565b6040516103f39190613eb7565b60405180910390f35b34801561040857600080fd5b506104116110b1565b005b34801561041f57600080fd5b5061043a600480360381019061043591906131f0565b611139565b6040516104479190613b15565b60405180910390f35b34801561045c57600080fd5b506104656111e0565b6040516104729190613a93565b60405180910390f35b34801561048757600080fd5b506104a2600480360381019061049d91906131f0565b61120a565b6040516104af9190613b15565b60405180910390f35b3480156104c457600080fd5b506104cd6112ad565b6040516104da9190613b15565b60405180910390f35b3480156104ef57600080fd5b506104f861133f565b6040516105059190613eb7565b60405180910390f35b610528600480360381019061052391906131f0565b611345565b005b34801561053657600080fd5b50610551600480360381019061054c919061309e565b61148f565b005b34801561055f57600080fd5b5061057a6004803603810190610575919061321d565b6114a5565b005b34801561058857600080fd5b506105a3600480360381019061059e919061301b565b61163a565b005b3480156105b157600080fd5b506105cc60048036038101906105c7919061321d565b61169c565b005b3480156105da57600080fd5b506105f560048036038101906105f091906131f0565b611832565b6040516106029190613b15565b60405180910390f35b34801561061757600080fd5b50610632600480360381019061062d91906131f0565b61188c565b60405161063f9190613eb7565b60405180910390f35b34801561065457600080fd5b5061066f600480360381019061066a91906131f0565b6118a4565b005b34801561067d57600080fd5b5061069860048036038101906106939190612f88565b611a34565b6040516106a59190613afa565b60405180910390f35b3480156106ba57600080fd5b506106d560048036038101906106d09190612f2e565b611ac8565b005b3480156106e357600080fd5b506106fe60048036038101906106f9919061311e565b611bc0565b005b60007f80ac58cd000000000000000000000000000000000000000000000000000000007bffffffffffffffffffffffffffffffffffffffffffffffffffffffff1916827bffffffffffffffffffffffffffffffffffffffffffffffffffffffff191614806107cb57507f5b5e139f000000000000000000000000000000000000000000000000000000007bffffffffffffffffffffffffffffffffffffffffffffffffffffffff1916827bffffffffffffffffffffffffffffffffffffffffffffffffffffffff1916145b806107db57506107da82611e89565b5b9050919050565b6060600080546107f1906141be565b80601f016020809104026020016040519081016040528092919081815260200182805461081d906141be565b801561086a5780601f1061083f5761010080835404028352916020019161086a565b820191906000526020600020905b81548152906001019060200180831161084d57829003601f168201915b5050505050905090565b600061087f82611ef3565b6108be576040517f08c379a00000000000000000000000000000000000000000000000000000000081526004016108b590613db7565b60405180910390fd5b6004600083815260200190815260200160002060009054906101000a900473ffffffffffffffffffffffffffffffffffffffff169050919050565b600061090482610f47565b90508073ffffffffffffffffffffffffffffffffffffffff168373ffffffffffffffffffffffffffffffffffffffff161415610975576040517f08c379a000000000000000000000000000000000000000000000000000000000815260040161096c90613e17565b60405180910390fd5b8073ffffffffffffffffffffffffffffffffffffffff16610994611f5f565b73ffffffffffffffffffffffffffffffffffffffff1614806109c357506109c2816109bd611f5f565b611a34565b5b610a02576040517f08c379a00000000000000000000000000000000000000000000000000000000081526004016109f990613d17565b60405180910390fd5b610a0c8383611f67565b505050565b600a5481565b610a28610a22611f5f565b82612020565b610a67576040517f08c379a0000000000000000000000000000000000000000000000000000000008152600401610a5e90613e37565b60405180910390fd5b610a728383836120fe565b505050565b610a7f611f5f565b73ffffffffffffffffffffffffffffffffffffffff16610a9d6111e0565b73ffffffffffffffffffffffffffffffffffffffff1614610af3576040517f08c379a0000000000000000000000000000000000000000000000000000000008152600401610aea90613df7565b60405180910390fd5b8051825114610b37576040517f08c379a0000000000000000000000000000000000000000000000000000000008152600401610b2e90613e97565b60405180910390fd5b60005b8251811015610d3c57600a828281518110610b5857610b57614328565b5b602002602001015160166000868581518110610b7757610b76614328565b5b6020026020010151815260200190815260200160002054610b989190613fb7565b1115610bd9576040517f08c379a0000000000000000000000000000000000000000000000000000000008152600401610bd090613b37565b60405180910390fd5b610bfc838281518110610bef57610bee614328565b5b6020026020010151611ef3565b610c3b576040517f08c379a0000000000000000000000000000000000000000000000000000000008152600401610c3290613d77565b60405180910390fd5b818181518110610c4e57610c4d614328565b5b602002602001015160166000858481518110610c6d57610c6c614328565b5b602002602001015181526020019081526020016000206000828254610c929190613fb7565b9250508190555060166000848381518110610cb057610caf614328565b5b6020026020010151815260200190815260200160002054828281518110610cda57610cd9614328565b5b6020026020010151848381518110610cf557610cf4614328565b5b60200260200101517f10e1ebf9c7a47e4e4ff2bc14d0556b003dc0dbb826023862d3b43aef88af5ff460405160405180910390a48080610d3490614221565b915050610b3a565b505050565b610d5c8383836040518060200160405280600081525061163a565b505050565b610d69611f5f565b73ffffffffffffffffffffffffffffffffffffffff16610d876111e0565b73ffffffffffffffffffffffffffffffffffffffff1614610ddd576040517f08c379a0000000000000000000000000000000000000000000000000000000008152600401610dd490613df7565b60405180910390fd5b600073ffffffffffffffffffffffffffffffffffffffff168173ffffffffffffffffffffffffffffffffffffffff161415610e4d576040517f08c379a0000000000000000000000000000000000000000000000000000000008152600401610e4490613e57565b60405180910390fd5b6000471015610e91576040517f08c379a0000000000000000000000000000000000000000000000000000000008152600401610e8890613cd7565b60405180910390fd5b60008173ffffffffffffffffffffffffffffffffffffffff1647604051610eb790613a7e565b60006040518083038185875af1925050503d8060008114610ef4576040519150601f19603f3d011682016040523d82523d6000602084013e610ef9565b606091505b5050905080610f3d576040517f08c379a0000000000000000000000000000000000000000000000000000000008152600401610f3490613c37565b60405180910390fd5b5050565b60095481565b6000806002600084815260200190815260200160002060009054906101000a900473ffffffffffffffffffffffffffffffffffffffff169050600073ffffffffffffffffffffffffffffffffffffffff168173ffffffffffffffffffffffffffffffffffffffff161415610ff0576040517f08c379a0000000000000000000000000000000000000000000000000000000008152600401610fe790613d57565b60405180910390fd5b80915050919050565b60008073ffffffffffffffffffffffffffffffffffffffff168273ffffffffffffffffffffffffffffffffffffffff16141561106a576040517f08c379a000000000000000000000000000000000000000000000000000000000815260040161106190613d37565b60405180910390fd5b600360008373ffffffffffffffffffffffffffffffffffffffff1673ffffffffffffffffffffffffffffffffffffffff168152602001908152602001600020549050919050565b6110b9611f5f565b73ffffffffffffffffffffffffffffffffffffffff166110d76111e0565b73ffffffffffffffffffffffffffffffffffffffff161461112d576040517f08c379a000000000000000000000000000000000000000000000000000000000815260040161112490613df7565b60405180910390fd5b6111376000612365565b565b60606000601660008481526020019081526020016000205490506111b961115f8261242b565b6111688561242b565b600c84600a811061117c5761117b614328565b5b01600c85600a811061119157611190614328565b5b016040516020016111a5949392919061398f565b60405160208183030381529060405261258c565b6040516020016111c99190613a5c565b604051602081830303815290604052915050919050565b6000600760009054906101000a900473ffffffffffffffffffffffffffffffffffffffff16905090565b600c81600a811061121a57600080fd5b01600091509050805461122c906141be565b80601f0160208091040260200160405190810160405280929190818152602001828054611258906141be565b80156112a55780601f1061127a576101008083540402835291602001916112a5565b820191906000526020600020905b81548152906001019060200180831161128857829003601f168201915b505050505081565b6060600180546112bc906141be565b80601f01602080910402602001604051908101604052809291908181526020018280546112e8906141be565b80156113355780601f1061130a57610100808354040283529160200191611335565b820191906000526020600020905b81548152906001019060200180831161131857829003601f168201915b5050505050905090565b600b5481565b6009546113526008612705565b1115611393576040517f08c379a000000000000000000000000000000000000000000000000000000000815260040161138a90613e77565b60405180910390fd5b60058111156113d7576040517f08c379a00000000000000000000000000000000000000000000000000000000081526004016113ce90613c97565b60405180910390fd5b80600b546113e5919061403e565b3414611426576040517f08c379a000000000000000000000000000000000000000000000000000000000815260040161141d90613c17565b60405180910390fd5b60005b6001826114369190614098565b811161148b5760006114486008612705565b90506114543382612713565b61145e6008612731565b6000601660008381526020019081526020016000208190555050808061148390614221565b915050611429565b5050565b6114a161149a611f5f565b8383612747565b5050565b6114ad611f5f565b73ffffffffffffffffffffffffffffffffffffffff166114cb6111e0565b73ffffffffffffffffffffffffffffffffffffffff1614611521576040517f08c379a000000000000000000000000000000000000000000000000000000000815260040161151890613df7565b60405180910390fd5b61152a82611ef3565b611569576040517f08c379a000000000000000000000000000000000000000000000000000000000815260040161156090613d77565b60405180910390fd5b600081601660008581526020019081526020016000205461158a9190614098565b116115ca576040517f08c379a00000000000000000000000000000000000000000000000000000000081526004016115c190613cf7565b60405180910390fd5b806016600084815260200190815260200160002060008282546115ed9190614098565b92505081905550601660008381526020019081526020016000205481837faa49ebe4d98fa594b8f11c2dba6a2582c4b3bc02108112dff2bbb61046cfd0f560405160405180910390a45050565b61164b611645611f5f565b83612020565b61168a576040517f08c379a000000000000000000000000000000000000000000000000000000000815260040161168190613e37565b60405180910390fd5b611696848484846128b4565b50505050565b6116a4611f5f565b73ffffffffffffffffffffffffffffffffffffffff166116c26111e0565b73ffffffffffffffffffffffffffffffffffffffff1614611718576040517f08c379a000000000000000000000000000000000000000000000000000000000815260040161170f90613df7565b60405180910390fd5b600a8160166000858152602001908152602001600020546117399190613fb7565b111561177a576040517f08c379a000000000000000000000000000000000000000000000000000000000815260040161177190613b37565b60405180910390fd5b61178382611ef3565b6117c2576040517f08c379a00000000000000000000000000000000000000000000000000000000081526004016117b990613d77565b60405180910390fd5b806016600084815260200190815260200160002060008282546117e59190613fb7565b92505081905550601660008381526020019081526020016000205481837f10e1ebf9c7a47e4e4ff2bc14d0556b003dc0dbb826023862d3b43aef88af5ff460405160405180910390a45050565b606061183d82611ef3565b61187c576040517f08c379a000000000000000000000000000000000000000000000000000000000815260040161187390613b77565b60405180910390fd5b61188582611139565b9050919050565b60166020528060005260406000206000915090505481565b6118ac611f5f565b73ffffffffffffffffffffffffffffffffffffffff166118ca6111e0565b73ffffffffffffffffffffffffffffffffffffffff1614611920576040517f08c379a000000000000000000000000000000000000000000000000000000000815260040161191790613df7565b60405180910390fd5b60095461192d6008612705565b111561196e576040517f08c379a000000000000000000000000000000000000000000000000000000000815260040161196590613e77565b60405180910390fd5b60005b60018261197e9190614098565b8111611a30576000600a54116119c9576040517f08c379a00000000000000000000000000000000000000000000000000000000081526004016119c090613dd7565b60405180910390fd5b60006119d56008612705565b90506119e13382612713565b6119eb6008612731565b600a6016600083815260200190815260200160002081905550600a6000815480929190611a1790614194565b9190505550508080611a2890614221565b915050611971565b5050565b6000600560008473ffffffffffffffffffffffffffffffffffffffff1673ffffffffffffffffffffffffffffffffffffffff16815260200190815260200160002060008373ffffffffffffffffffffffffffffffffffffffff1673ffffffffffffffffffffffffffffffffffffffff16815260200190815260200160002060009054906101000a900460ff16905092915050565b611ad0611f5f565b73ffffffffffffffffffffffffffffffffffffffff16611aee6111e0565b73ffffffffffffffffffffffffffffffffffffffff1614611b44576040517f08c379a0000000000000000000000000000000000000000000000000000000008152600401611b3b90613df7565b60405180910390fd5b600073ffffffffffffffffffffffffffffffffffffffff168173ffffffffffffffffffffffffffffffffffffffff161415611bb4576040517f08c379a0000000000000000000000000000000000000000000000000000000008152600401611bab90613b97565b60405180910390fd5b611bbd81612365565b50565b611bc8611f5f565b73ffffffffffffffffffffffffffffffffffffffff16611be66111e0565b73ffffffffffffffffffffffffffffffffffffffff1614611c3c576040517f08c379a0000000000000000000000000000000000000000000000000000000008152600401611c3390613df7565b60405180910390fd5b8051825114611c80576040517f08c379a0000000000000000000000000000000000000000000000000000000008152600401611c7790613e97565b60405180910390fd5b60005b8251811015611e8457611caf838281518110611ca257611ca1614328565b5b6020026020010151611ef3565b611cee576040517f08c379a0000000000000000000000000000000000000000000000000000000008152600401611ce590613d77565b60405180910390fd5b6000828281518110611d0357611d02614328565b5b602002602001015160166000868581518110611d2257611d21614328565b5b6020026020010151815260200190815260200160002054611d439190614098565b11611d83576040517f08c379a0000000000000000000000000000000000000000000000000000000008152600401611d7a90613bf7565b60405180910390fd5b818181518110611d9657611d95614328565b5b602002602001015160166000858481518110611db557611db4614328565b5b602002602001015181526020019081526020016000206000828254611dda9190614098565b9250508190555060166000848381518110611df857611df7614328565b5b6020026020010151815260200190815260200160002054828281518110611e2257611e21614328565b5b6020026020010151848381518110611e3d57611e3c614328565b5b60200260200101517faa49ebe4d98fa594b8f11c2dba6a2582c4b3bc02108112dff2bbb61046cfd0f560405160405180910390a48080611e7c90614221565b915050611c83565b505050565b60007f01ffc9a7000000000000000000000000000000000000000000000000000000007bffffffffffffffffffffffffffffffffffffffffffffffffffffffff1916827bffffffffffffffffffffffffffffffffffffffffffffffffffffffff1916149050919050565b60008073ffffffffffffffffffffffffffffffffffffffff166002600084815260200190815260200160002060009054906101000a900473ffffffffffffffffffffffffffffffffffffffff1673ffffffffffffffffffffffffffffffffffffffff1614159050919050565b600033905090565b816004600083815260200190815260200160002060006101000a81548173ffffffffffffffffffffffffffffffffffffffff021916908373ffffffffffffffffffffffffffffffffffffffff160217905550808273ffffffffffffffffffffffffffffffffffffffff16611fda83610f47565b73ffffffffffffffffffffffffffffffffffffffff167f8c5be1e5ebec7d5bd14f71427d1e84f3dd0314c0f7b2291e5b200ac8c7c3b92560405160405180910390a45050565b600061202b82611ef3565b61206a576040517f08c379a000000000000000000000000000000000000000000000000000000000815260040161206190613cb7565b60405180910390fd5b600061207583610f47565b90508073ffffffffffffffffffffffffffffffffffffffff168473ffffffffffffffffffffffffffffffffffffffff1614806120e457508373ffffffffffffffffffffffffffffffffffffffff166120cc84610874565b73ffffffffffffffffffffffffffffffffffffffff16145b806120f557506120f48185611a34565b5b91505092915050565b8273ffffffffffffffffffffffffffffffffffffffff1661211e82610f47565b73ffffffffffffffffffffffffffffffffffffffff1614612174576040517f08c379a000000000000000000000000000000000000000000000000000000000815260040161216b90613bb7565b60405180910390fd5b600073ffffffffffffffffffffffffffffffffffffffff168273ffffffffffffffffffffffffffffffffffffffff1614156121e4576040517f08c379a00000000000000000000000000000000000000000000000000000000081526004016121db90613c57565b60405180910390fd5b6121ef838383612910565b6121fa600082611f67565b6001600360008573ffffffffffffffffffffffffffffffffffffffff1673ffffffffffffffffffffffffffffffffffffffff168152602001908152602001600020600082825461224a9190614098565b925050819055506001600360008473ffffffffffffffffffffffffffffffffffffffff1673ffffffffffffffffffffffffffffffffffffffff16815260200190815260200160002060008282546122a19190613fb7565b92505081905550816002600083815260200190815260200160002060006101000a81548173ffffffffffffffffffffffffffffffffffffffff021916908373ffffffffffffffffffffffffffffffffffffffff160217905550808273ffffffffffffffffffffffffffffffffffffffff168473ffffffffffffffffffffffffffffffffffffffff167fddf252ad1be2c89b69c2b068fc378daa952ba7f163c4a11628f55a4df523b3ef60405160405180910390a46123608383836129a9565b505050565b6000600760009054906101000a900473ffffffffffffffffffffffffffffffffffffffff16905081600760006101000a81548173ffffffffffffffffffffffffffffffffffffffff021916908373ffffffffffffffffffffffffffffffffffffffff1602179055508173ffffffffffffffffffffffffffffffffffffffff168173ffffffffffffffffffffffffffffffffffffffff167f8be0079c531659141344cd1fd0a4f28419497f9722a3daafe3b4186f6b6457e060405160405180910390a35050565b60606000821415612473576040518060400160405280600181526020017f30000000000000000000000000000000000000000000000000000000000000008152509050612587565b600082905060005b600082146124a557808061248e90614221565b915050600a8261249e919061400d565b915061247b565b60008167ffffffffffffffff8111156124c1576124c0614357565b5b6040519080825280601f01601f1916602001820160405280156124f35781602001600182028036833780820191505090505b5090505b600085146125805760018261250c9190614098565b9150600a8561251b919061426a565b60306125279190613fb7565b60f81b81838151811061253d5761253c614328565b5b60200101907effffffffffffffffffffffffffffffffffffffffffffffffffffffffffffff1916908160001a905350600a85612579919061400d565b94506124f7565b8093505050505b919050565b60606000825114156125af57604051806020016040528060008152509050612700565b6000604051806060016040528060408152602001614e4c60409139905060006003600285516125de9190613fb7565b6125e8919061400d565b60046125f4919061403e565b905060006020826126059190613fb7565b67ffffffffffffffff81111561261e5761261d614357565b5b6040519080825280601f01601f1916602001820160405280156126505781602001600182028036833780820191505090505b509050818152600183018586518101602084015b818310156126bf576003830192508251603f8160121c168501518253600182019150603f81600c1c168501518253600182019150603f8160061c168501518253600182019150603f8116850151825360018201915050612664565b6003895106600181146126d957600281146126e9576126f4565b613d3d60f01b60028303526126f4565b603d60f81b60018303525b50505050508093505050505b919050565b600081600001549050919050565b61272d8282604051806020016040528060008152506129ae565b5050565b6001816000016000828254019250508190555050565b8173ffffffffffffffffffffffffffffffffffffffff168373ffffffffffffffffffffffffffffffffffffffff1614156127b6576040517f08c379a00000000000000000000000000000000000000000000000000000000081526004016127ad90613c77565b60405180910390fd5b80600560008573ffffffffffffffffffffffffffffffffffffffff1673ffffffffffffffffffffffffffffffffffffffff16815260200190815260200160002060008473ffffffffffffffffffffffffffffffffffffffff1673ffffffffffffffffffffffffffffffffffffffff16815260200190815260200160002060006101000a81548160ff0219169083151502179055508173ffffffffffffffffffffffffffffffffffffffff168373ffffffffffffffffffffffffffffffffffffffff167f17307eab39ab6107e8899845ad3d59bd9653f200f220920489ca2b5937696c31836040516128a79190613afa565b60405180910390a3505050565b6128bf8484846120fe565b6128cb84848484612a09565b61290a576040517f08c379a000000000000000000000000000000000000000000000000000000000815260040161290190613b57565b60405180910390fd5b50505050565b61291b838383612ba0565b600073ffffffffffffffffffffffffffffffffffffffff168273ffffffffffffffffffffffffffffffffffffffff16141580156129855750600073ffffffffffffffffffffffffffffffffffffffff168373ffffffffffffffffffffffffffffffffffffffff1614155b156129a457600060166000838152602001908152602001600020819055505b505050565b505050565b6129b88383612ba5565b6129c56000848484612a09565b612a04576040517f08c379a00000000000000000000000000000000000000000000000000000000081526004016129fb90613b57565b60405180910390fd5b505050565b6000612a2a8473ffffffffffffffffffffffffffffffffffffffff16612d7f565b15612b93578373ffffffffffffffffffffffffffffffffffffffff1663150b7a02612a53611f5f565b8786866040518563ffffffff1660e01b8152600401612a759493929190613aae565b602060405180830381600087803b158015612a8f57600080fd5b505af1925050508015612ac057506040513d601f19601f82011682018060405250810190612abd91906131c3565b60015b612b43573d8060008114612af0576040519150601f19603f3d011682016040523d82523d6000602084013e612af5565b606091505b50600081511415612b3b576040517f08c379a0000000000000000000000000000000000000000000000000000000008152600401612b3290613b57565b60405180910390fd5b805181602001fd5b63150b7a0260e01b7bffffffffffffffffffffffffffffffffffffffffffffffffffffffff1916817bffffffffffffffffffffffffffffffffffffffffffffffffffffffff191614915050612b98565b600190505b949350505050565b505050565b600073ffffffffffffffffffffffffffffffffffffffff168273ffffffffffffffffffffffffffffffffffffffff161415612c15576040517f08c379a0000000000000000000000000000000000000000000000000000000008152600401612c0c90613d97565b60405180910390fd5b612c1e81611ef3565b15612c5e576040517f08c379a0000000000000000000000000000000000000000000000000000000008152600401612c5590613bd7565b60405180910390fd5b612c6a60008383612910565b6001600360008473ffffffffffffffffffffffffffffffffffffffff1673ffffffffffffffffffffffffffffffffffffffff1681526020019081526020016000206000828254612cba9190613fb7565b92505081905550816002600083815260200190815260200160002060006101000a81548173ffffffffffffffffffffffffffffffffffffffff021916908373ffffffffffffffffffffffffffffffffffffffff160217905550808273ffffffffffffffffffffffffffffffffffffffff16600073ffffffffffffffffffffffffffffffffffffffff167fddf252ad1be2c89b69c2b068fc378daa952ba7f163c4a11628f55a4df523b3ef60405160405180910390a4612d7b600083836129a9565b5050565b6000808273ffffffffffffffffffffffffffffffffffffffff163b119050919050565b6000612db5612db084613ef7565b613ed2565b90508083825260208201905082856020860282011115612dd857612dd761438b565b5b60005b85811015612e085781612dee8882612f19565b845260208401935060208301925050600181019050612ddb565b5050509392505050565b6000612e25612e2084613f23565b613ed2565b905082815260208101848484011115612e4157612e40614390565b5b612e4c848285614152565b509392505050565b600081359050612e6381614dd8565b92915050565b600081359050612e7881614def565b92915050565b600082601f830112612e9357612e92614386565b5b8135612ea3848260208601612da2565b91505092915050565b600081359050612ebb81614e06565b92915050565b600081359050612ed081614e1d565b92915050565b600081519050612ee581614e1d565b92915050565b600082601f830112612f0057612eff614386565b5b8135612f10848260208601612e12565b91505092915050565b600081359050612f2881614e34565b92915050565b600060208284031215612f4457612f4361439a565b5b6000612f5284828501612e54565b91505092915050565b600060208284031215612f7157612f7061439a565b5b6000612f7f84828501612e69565b91505092915050565b60008060408385031215612f9f57612f9e61439a565b5b6000612fad85828601612e54565b9250506020612fbe85828601612e54565b9150509250929050565b600080600060608486031215612fe157612fe061439a565b5b6000612fef86828701612e54565b935050602061300086828701612e54565b925050604061301186828701612f19565b9150509250925092565b600080600080608085870312156130355761303461439a565b5b600061304387828801612e54565b945050602061305487828801612e54565b935050604061306587828801612f19565b925050606085013567ffffffffffffffff81111561308657613085614395565b5b61309287828801612eeb565b91505092959194509250565b600080604083850312156130b5576130b461439a565b5b60006130c385828601612e54565b92505060206130d485828601612eac565b9150509250929050565b600080604083850312156130f5576130f461439a565b5b600061310385828601612e54565b925050602061311485828601612f19565b9150509250929050565b600080604083850312156131355761313461439a565b5b600083013567ffffffffffffffff81111561315357613152614395565b5b61315f85828601612e7e565b925050602083013567ffffffffffffffff8111156131805761317f614395565b5b61318c85828601612e7e565b9150509250929050565b6000602082840312156131ac576131ab61439a565b5b60006131ba84828501612ec1565b91505092915050565b6000602082840312156131d9576131d861439a565b5b60006131e784828501612ed6565b91505092915050565b6000602082840312156132065761320561439a565b5b600061321484828501612f19565b91505092915050565b600080604083850312156132345761323361439a565b5b600061324285828601612f19565b925050602061325385828601612f19565b9150509250929050565b613266816140cc565b82525050565b613275816140f0565b82525050565b600061328682613f69565b6132908185613f7f565b93506132a0818560208601614161565b6132a98161439f565b840191505092915050565b60006132bf82613f74565b6132c98185613f9b565b93506132d9818560208601614161565b6132e28161439f565b840191505092915050565b60006132f882613f74565b6133028185613fac565b9350613312818560208601614161565b80840191505092915050565b6000815461332b816141be565b6133358186613fac565b94506001821660008114613350576001811461336157613394565b60ff19831686528186019350613394565b61336a85613f54565b60005b8381101561338c5781548189015260018201915060208101905061336d565b838801955050505b50505092915050565b60006133aa600f83613f9b565b91506133b5826143b0565b602082019050919050565b60006133cd603283613f9b565b91506133d8826143d9565b604082019050919050565b60006133f0603083613f9b565b91506133fb82614428565b604082019050919050565b6000613413602683613f9b565b915061341e82614477565b604082019050919050565b6000613436600283613fac565b9150613441826144c6565b600282019050919050565b6000613459602583613f9b565b9150613464826144ef565b604082019050919050565b600061347c601c83613f9b565b91506134878261453e565b602082019050919050565b600061349f602283613f9b565b91506134aa82614567565b604082019050919050565b60006134c2602b83613fac565b91506134cd826145b6565b602b82019050919050565b60006134e5600383613fac565b91506134f082614605565b600382019050919050565b6000613508601f83613fac565b91506135138261462e565b601f82019050919050565b600061352b601483613f9b565b915061353682614657565b602082019050919050565b600061354e601483613f9b565b915061355982614680565b602082019050919050565b6000613571602483613f9b565b915061357c826146a9565b604082019050919050565b6000613594601983613f9b565b915061359f826146f8565b602082019050919050565b60006135b7601183613fac565b91506135c282614721565b601182019050919050565b60006135da601983613f9b565b91506135e58261474a565b602082019050919050565b60006135fd602c83613f9b565b915061360882614773565b604082019050919050565b6000613620600e83613f9b565b915061362b826147c2565b602082019050919050565b6000613643601c83613f9b565b915061364e826147eb565b602082019050919050565b6000613666603883613f9b565b915061367182614814565b604082019050919050565b6000613689602a83613f9b565b915061369482614863565b604082019050919050565b60006136ac602983613f9b565b91506136b7826148b2565b604082019050919050565b60006136cf600983613fac565b91506136da82614901565b600982019050919050565b60006136f2600283613fac565b91506136fd8261492a565b600282019050919050565b6000613715600e83613f9b565b915061372082614953565b602082019050919050565b6000613738602083613f9b565b91506137438261497c565b602082019050919050565b600061375b600283613fac565b9150613766826149a5565b600282019050919050565b600061377e602c83613f9b565b9150613789826149ce565b604082019050919050565b60006137a1601883613f9b565b91506137ac82614a1d565b602082019050919050565b60006137c4602083613f9b565b91506137cf82614a46565b602082019050919050565b60006137e7600183613fac565b91506137f282614a6f565b600182019050919050565b600061380a603383613fac565b915061381582614a98565b603382019050919050565b600061382d602183613f9b565b915061383882614ae7565b604082019050919050565b6000613850601d83613fac565b915061385b82614b36565b601d82019050919050565b6000613873600083613f90565b915061387e82614b5f565b600082019050919050565b6000613896603183613f9b565b91506138a182614b62565b604082019050919050565b60006138b9600783613fac565b91506138c482614bb1565b600782019050919050565b60006138dd61010583613fac565b91506138e882614bda565b61010582019050919050565b6000613901601f83613f9b565b915061390c82614d34565b602082019050919050565b6000613924600e83613fac565b915061392f82614d5d565b600e82019050919050565b6000613947601b83613f9b565b915061395282614d86565b602082019050919050565b600061396a601083613f9b565b915061397582614daf565b602082019050919050565b61398981614148565b82525050565b600061399a826137fd565b91506139a5826138cf565b91506139b082613917565b91506139bb826137da565b91506139c6826134fb565b91506139d282876132ed565b91506139dd826134d8565b91506139e8826134b5565b91506139f482866132ed565b91506139ff826138ac565b9150613a0a8261374e565b9150613a15826136c2565b9150613a21828561331e565b9150613a2c82613429565b9150613a37826135aa565b9150613a43828461331e565b9150613a4e826136e5565b915081905095945050505050565b6000613a6782613843565b9150613a7382846132ed565b915081905092915050565b6000613a8982613866565b9150819050919050565b6000602082019050613aa8600083018461325d565b92915050565b6000608082019050613ac3600083018761325d565b613ad0602083018661325d565b613add6040830185613980565b8181036060830152613aef818461327b565b905095945050505050565b6000602082019050613b0f600083018461326c565b92915050565b60006020820190508181036000830152613b2f81846132b4565b905092915050565b60006020820190508181036000830152613b508161339d565b9050919050565b60006020820190508181036000830152613b70816133c0565b9050919050565b60006020820190508181036000830152613b90816133e3565b9050919050565b60006020820190508181036000830152613bb081613406565b9050919050565b60006020820190508181036000830152613bd08161344c565b9050919050565b60006020820190508181036000830152613bf08161346f565b9050919050565b60006020820190508181036000830152613c1081613492565b9050919050565b60006020820190508181036000830152613c308161351e565b9050919050565b60006020820190508181036000830152613c5081613541565b9050919050565b60006020820190508181036000830152613c7081613564565b9050919050565b60006020820190508181036000830152613c9081613587565b9050919050565b60006020820190508181036000830152613cb0816135cd565b9050919050565b60006020820190508181036000830152613cd0816135f0565b9050919050565b60006020820190508181036000830152613cf081613613565b9050919050565b60006020820190508181036000830152613d1081613636565b9050919050565b60006020820190508181036000830152613d3081613659565b9050919050565b60006020820190508181036000830152613d508161367c565b9050919050565b60006020820190508181036000830152613d708161369f565b9050919050565b60006020820190508181036000830152613d9081613708565b9050919050565b60006020820190508181036000830152613db08161372b565b9050919050565b60006020820190508181036000830152613dd081613771565b9050919050565b60006020820190508181036000830152613df081613794565b9050919050565b60006020820190508181036000830152613e10816137b7565b9050919050565b60006020820190508181036000830152613e3081613820565b9050919050565b60006020820190508181036000830152613e5081613889565b9050919050565b60006020820190508181036000830152613e70816138f4565b9050919050565b60006020820190508181036000830152613e908161393a565b9050919050565b60006020820190508181036000830152613eb08161395d565b9050919050565b6000602082019050613ecc6000830184613980565b92915050565b6000613edc613eed565b9050613ee882826141f0565b919050565b6000604051905090565b600067ffffffffffffffff821115613f1257613f11614357565b5b602082029050602081019050919050565b600067ffffffffffffffff821115613f3e57613f3d614357565b5b613f478261439f565b9050602081019050919050565b60008190508160005260206000209050919050565b600081519050919050565b600081519050919050565b600082825260208201905092915050565b600081905092915050565b600082825260208201905092915050565b600081905092915050565b6000613fc282614148565b9150613fcd83614148565b9250827fffffffffffffffffffffffffffffffffffffffffffffffffffffffffffffffff038211156140025761400161429b565b5b828201905092915050565b600061401882614148565b915061402383614148565b925082614033576140326142ca565b5b828204905092915050565b600061404982614148565b915061405483614148565b9250817fffffffffffffffffffffffffffffffffffffffffffffffffffffffffffffffff048311821515161561408d5761408c61429b565b5b828202905092915050565b60006140a382614148565b91506140ae83614148565b9250828210156140c1576140c061429b565b5b828203905092915050565b60006140d782614128565b9050919050565b60006140e982614128565b9050919050565b60008115159050919050565b60007fffffffff0000000000000000000000000000000000000000000000000000000082169050919050565b600073ffffffffffffffffffffffffffffffffffffffff82169050919050565b6000819050919050565b82818337600083830152505050565b60005b8381101561417f578082015181840152602081019050614164565b8381111561418e576000848401525b50505050565b600061419f82614148565b915060008214156141b3576141b261429b565b5b600182039050919050565b600060028204905060018216806141d657607f821691505b602082108114156141ea576141e96142f9565b5b50919050565b6141f98261439f565b810181811067ffffffffffffffff8211171561421857614217614357565b5b80604052505050565b600061422c82614148565b91507fffffffffffffffffffffffffffffffffffffffffffffffffffffffffffffffff82141561425f5761425e61429b565b5b600182019050919050565b600061427582614148565b915061428083614148565b9250826142905761428f6142ca565b5b828206905092915050565b7f4e487b7100000000000000000000000000000000000000000000000000000000600052601160045260246000fd5b7f4e487b7100000000000000000000000000000000000000000000000000000000600052601260045260246000fd5b7f4e487b7100000000000000000000000000000000000000000000000000000000600052602260045260246000fd5b7f4e487b7100000000000000000000000000000000000000000000000000000000600052603260045260246000fd5b7f4e487b7100000000000000000000000000000000000000000000000000000000600052604160045260246000fd5b600080fd5b600080fd5b600080fd5b600080fd5b600080fd5b6000601f19601f8301169050919050565b7f6d6178206c6576656c2069732031300000000000000000000000000000000000600082015250565b7f4552433732313a207472616e7366657220746f206e6f6e20455243373231526560008201527f63656976657220696d706c656d656e7465720000000000000000000000000000602082015250565b7f436c656172616e63652043617264733a2055524920717565727920666f72206e60008201527f6f6e6578697374656e7420746f6b656e00000000000000000000000000000000602082015250565b7f4f776e61626c653a206e6577206f776e657220697320746865207a65726f206160008201527f6464726573730000000000000000000000000000000000000000000000000000602082015250565b7f222c000000000000000000000000000000000000000000000000000000000000600082015250565b7f4552433732313a207472616e736665722066726f6d20696e636f72726563742060008201527f6f776e6572000000000000000000000000000000000000000000000000000000602082015250565b7f4552433732313a20746f6b656e20616c7265616479206d696e74656400000000600082015250565b7f6c6576656c206261746368206d7573742062652067726561746572207468616e60008201527f2030000000000000000000000000000000000000000000000000000000000000602082015250565b7f7b2274726169745f74797065223a224d656d62657273686970204e756d62657260008201527f222c2276616c7565223a22000000000000000000000000000000000000000000602082015250565b7f227d2c0000000000000000000000000000000000000000000000000000000000600082015250565b7f7b2274726169745f74797065223a224c6576656c222c2276616c7565223a2200600082015250565b7f496e636f72726563742065746820616d6f756e74000000000000000000000000600082015250565b7f4661696c656420746f2073656e64204574686572000000000000000000000000600082015250565b7f4552433732313a207472616e7366657220746f20746865207a65726f2061646460008201527f7265737300000000000000000000000000000000000000000000000000000000602082015250565b7f4552433732313a20617070726f766520746f2063616c6c657200000000000000600082015250565b7f22616e696d6174696f6e5f75726c223a22000000000000000000000000000000600082015250565b7f63616e206f6e6c79206d696e74203520617420612074696d6500000000000000600082015250565b7f4552433732313a206f70657261746f7220717565727920666f72206e6f6e657860008201527f697374656e7420746f6b656e0000000000000000000000000000000000000000602082015250565b7f4e6f7420656e6f75676820657468000000000000000000000000000000000000600082015250565b7f6c6576656c206d7573742062652067726561746572207468616e203000000000600082015250565b7f4552433732313a20617070726f76652063616c6c6572206973206e6f74206f7760008201527f6e6572206e6f7220617070726f76656420666f7220616c6c0000000000000000602082015250565b7f4552433732313a2062616c616e636520717565727920666f7220746865207a6560008201527f726f206164647265737300000000000000000000000000000000000000000000602082015250565b7f4552433732313a206f776e657220717565727920666f72206e6f6e657869737460008201527f656e7420746f6b656e0000000000000000000000000000000000000000000000602082015250565b7f22696d616765223a220000000000000000000000000000000000000000000000600082015250565b7f227d000000000000000000000000000000000000000000000000000000000000600082015250565b7f6e6f6e6578697374656e74206964000000000000000000000000000000000000600082015250565b7f4552433732313a206d696e7420746f20746865207a65726f2061646472657373600082015250565b7f5d2c000000000000000000000000000000000000000000000000000000000000600082015250565b7f4552433732313a20617070726f76656420717565727920666f72206e6f6e657860008201527f697374656e7420746f6b656e0000000000000000000000000000000000000000602082015250565b7f64616f20726573657276652066756c6c79206d696e7465640000000000000000600082015250565b7f4f776e61626c653a2063616c6c6572206973206e6f7420746865206f776e6572600082015250565b7f5b00000000000000000000000000000000000000000000000000000000000000600082015250565b7f7b226e616d65223a2253656b657220466163746f727920546f7020436c65617260008201527f616e6365202d2044414f204d656d626572222c00000000000000000000000000602082015250565b7f4552433732313a20617070726f76616c20746f2063757272656e74206f776e6560008201527f7200000000000000000000000000000000000000000000000000000000000000602082015250565b7f646174613a6170706c69636174696f6e2f6a736f6e3b6261736536342c000000600082015250565b50565b7f4552433732313a207472616e736665722063616c6c6572206973206e6f74206f60008201527f776e6572206e6f7220617070726f766564000000000000000000000000000000602082015250565b7f2f31303030227d00000000000000000000000000000000000000000000000000600082015250565b7f226465736372697074696f6e223a22546f7020636c656172616e6365206d656d60008201527f6265727368697020746f207468652053656b657220466163746f72792044414f60208201527f732e20486f6c64696e6720746869732063617264207365637572657320796f7560408201527f72206d656d626572736869702073746174757320616e64206f6666657273207660608201527f6f74696e6720726967687473206f6e2070726f706f73616c732072656c61746560808201527f6420746f20616c6c20666163746f726965732e204c6576656c2075702074686960a08201527f73206361726420746f2072656365697665206d6f7265207065726b7320616e6460c08201527f20676f7665726e616e6365207269676874732077697468696e2074686520444160e08201527f4f732e222c00000000000000000000000000000000000000000000000000000061010082015250565b7f576974686472617720616464726573732063616e6e6f74206265207a65726f00600082015250565b7f2261747472696275746573223a20000000000000000000000000000000000000600082015250565b7f6d696e74696e6720686173207265616368656420697473206d61780000000000600082015250565b7f6c656e677468206d6973736d6174636800000000000000000000000000000000600082015250565b614de1816140cc565b8114614dec57600080fd5b50565b614df8816140de565b8114614e0357600080fd5b50565b614e0f816140f0565b8114614e1a57600080fd5b50565b614e26816140fc565b8114614e3157600080fd5b50565b614e3d81614148565b8114614e4857600080fd5b5056fe4142434445464748494a4b4c4d4e4f505152535455565758595a6162636465666768696a6b6c6d6e6f707172737475767778797a303132333435363738392b2fa264697066735822122047f7e871fbbea41f273170b9c10189b0a2f9a0bcde3528bc8c1893b98c07fd2f64736f6c6343000806003368747470733a2f2f73656b6572666163746f72792e6d7970696e6174612e636c6f75642f697066732f516d53536a79684b386e505a7a46755075333368694d3870364e346859463631356d31526252696d5a755659396568747470733a2f2f73656b6572666163746f72792e6d7970696e6174612e636c6f75642f697066732f516d5332477a764e615453714643666854344e55694d4c734844747744426644466534643676595568334b70487068747470733a2f2f73656b6572666163746f72792e6d7970696e6174612e636c6f75642f697066732f516d5135317a464c70434268686935683573567238437a6935434461575746766e76536b453963314e657855695368747470733a2f2f73656b6572666163746f72792e6d7970696e6174612e636c6f75642f697066732f516d553645694b4758684b4a6e557034374e7269324e55527a5459315a467874626831744335704a317a4e43423468747470733a2f2f73656b6572666163746f72792e6d7970696e6174612e636c6f75642f697066732f516d6245785a35724c78396934546e475238726f4e7043717933694a4646706e46524c5670483871636a6674726253656b657220466163746f727920546f7020436c656172616e636520436172647368747470733a2f2f73656b6572666163746f72792e6d7970696e6174612e636c6f75642f697066732f516d59326a374e676276327a4d71596f58777735664161313835654558564b31705a6e67386547557443314c543668747470733a2f2f73656b6572666163746f72792e6d7970696e6174612e636c6f75642f697066732f516d586f315755625a53573153556f775a325947365a5a4679574a797872454275314a696b4c6473766a3167793268747470733a2f2f73656b6572666163746f72792e6d7970696e6174612e636c6f75642f697066732f516d66377a35334e46654548783547753450615643344e6645565a6a354441644247347266706f6a714235774e6468747470733a2f2f73656b6572666163746f72792e6d7970696e6174612e636c6f75642f697066732f516d55316b4d664c7531396f766e6f47527465646963484543374764634a6f41373241536d5161624174646b4b7568747470733a2f2f73656b6572666163746f72792e6d7970696e6174612e636c6f75642f697066732f516d59366a4d7645586f434246513432443371796d4d667475613257586b6667554270626376426d795a73463839",
  "linkReferences": {},
  "deployedLinkReferences": {}
}