{
  "_format": "hh-sol-artifact-1",
  "contractName": "Ukraine",
  "sourceName": "contracts/Ukraine.sol",
  "abi": [
    {
      "inputs": [],
      "stateMutability": "nonpayable",
      "type": "constructor"
    },
    {
      "anonymous": false,
      "inputs": [
        {
          "indexed": true,
          "internalType": "address",
          "name": "owner",
          "type": "address"
        },
        {
          "indexed": true,
          "internalType": "address",
          "name": "approved",
          "type": "address"
        },
        {
          "indexed": true,
          "internalType": "uint256",
          "name": "tokenId",
          "type": "uint256"
        }
      ],
      "name": "Approval",
      "type": "event"
    },
    {
      "anonymous": false,
      "inputs": [
        {
          "indexed": true,
          "internalType": "address",
          "name": "owner",
          "type": "address"
        },
        {
          "indexed": true,
          "internalType": "address",
          "name": "operator",
          "type": "address"
        },
        {
          "indexed": false,
          "internalType": "bool",
          "name": "approved",
          "type": "bool"
        }
      ],
      "name": "ApprovalForAll",
      "type": "event"
    },
    {
      "anonymous": false,
      "inputs": [
        {
          "indexed": true,
          "internalType": "address",
          "name": "previousOwner",
          "type": "address"
        },
        {
          "indexed": true,
          "internalType": "address",
          "name": "newOwner",
          "type": "address"
        }
      ],
      "name": "OwnershipTransferred",
      "type": "event"
    },
    {
      "anonymous": false,
      "inputs": [
        {
          "indexed": true,
          "internalType": "address",
          "name": "from",
          "type": "address"
        },
        {
          "indexed": true,
          "internalType": "address",
          "name": "to",
          "type": "address"
        },
        {
          "indexed": true,
          "internalType": "uint256",
          "name": "tokenId",
          "type": "uint256"
        }
      ],
      "name": "Transfer",
      "type": "event"
    },
    {
      "inputs": [],
      "name": "_uri",
      "outputs": [
        {
          "internalType": "string",
          "name": "",
          "type": "string"
        }
      ],
      "stateMutability": "view",
      "type": "function"
    },
    {
      "inputs": [
        {
          "internalType": "address",
          "name": "to",
          "type": "address"
        },
        {
          "internalType": "uint256",
          "name": "tokenId",
          "type": "uint256"
        }
      ],
      "name": "approve",
      "outputs": [],
      "stateMutability": "nonpayable",
      "type": "function"
    },
    {
      "inputs": [
        {
          "internalType": "address",
          "name": "owner",
          "type": "address"
        }
      ],
      "name": "balanceOf",
      "outputs": [
        {
          "internalType": "uint256",
          "name": "",
          "type": "uint256"
        }
      ],
      "stateMutability": "view",
      "type": "function"
    },
    {
      "inputs": [],
      "name": "burnEditionUpdates",
      "outputs": [],
      "stateMutability": "nonpayable",
      "type": "function"
    },
    {
      "inputs": [],
      "name": "burnURIUpdates",
      "outputs": [],
      "stateMutability": "nonpayable",
      "type": "function"
    },
    {
      "inputs": [],
      "name": "canUpdateEditions",
      "outputs": [
        {
          "internalType": "bool",
          "name": "",
          "type": "bool"
        }
      ],
      "stateMutability": "view",
      "type": "function"
    },
    {
      "inputs": [],
      "name": "canUpdateURI",
      "outputs": [
        {
          "internalType": "bool",
          "name": "",
          "type": "bool"
        }
      ],
      "stateMutability": "view",
      "type": "function"
    },
    {
      "inputs": [
        {
          "internalType": "uint256",
          "name": "tokenId",
          "type": "uint256"
        }
      ],
      "name": "getApproved",
      "outputs": [
        {
          "internalType": "address",
          "name": "",
          "type": "address"
        }
      ],
      "stateMutability": "view",
      "type": "function"
    },
    {
      "inputs": [
        {
          "internalType": "address",
          "name": "owner",
          "type": "address"
        },
        {
          "internalType": "address",
          "name": "operator",
          "type": "address"
        }
      ],
      "name": "isApprovedForAll",
      "outputs": [
        {
          "internalType": "bool",
          "name": "",
          "type": "bool"
        }
      ],
      "stateMutability": "view",
      "type": "function"
    },
    {
      "inputs": [
        {
          "internalType": "uint256",
          "name": "_amount",
          "type": "uint256"
        }
      ],
      "name": "mint",
      "outputs": [],
      "stateMutability": "payable",
      "type": "function"
    },
    {
      "inputs": [],
      "name": "name",
      "outputs": [
        {
          "internalType": "string",
          "name": "",
          "type": "string"
        }
      ],
      "stateMutability": "view",
      "type": "function"
    },
    {
      "inputs": [],
      "name": "owner",
      "outputs": [
        {
          "internalType": "address",
          "name": "",
          "type": "address"
        }
      ],
      "stateMutability": "view",
      "type": "function"
    },
    {
      "inputs": [
        {
          "internalType": "uint256",
          "name": "tokenId",
          "type": "uint256"
        }
      ],
      "name": "ownerOf",
      "outputs": [
        {
          "internalType": "address",
          "name": "",
          "type": "address"
        }
      ],
      "stateMutability": "view",
      "type": "function"
    },
    {
      "inputs": [],
      "name": "price",
      "outputs": [
        {
          "internalType": "uint256",
          "name": "",
          "type": "uint256"
        }
      ],
      "stateMutability": "view",
      "type": "function"
    },
    {
      "inputs": [],
      "name": "renounceOwnership",
      "outputs": [],
      "stateMutability": "nonpayable",
      "type": "function"
    },
    {
      "inputs": [
        {
          "internalType": "address",
          "name": "from",
          "type": "address"
        },
        {
          "internalType": "address",
          "name": "to",
          "type": "address"
        },
        {
          "internalType": "uint256",
          "name": "tokenId",
          "type": "uint256"
        }
      ],
      "name": "safeTransferFrom",
      "outputs": [],
      "stateMutability": "nonpayable",
      "type": "function"
    },
    {
      "inputs": [
        {
          "internalType": "address",
          "name": "from",
          "type": "address"
        },
        {
          "internalType": "address",
          "name": "to",
          "type": "address"
        },
        {
          "internalType": "uint256",
          "name": "tokenId",
          "type": "uint256"
        },
        {
          "internalType": "bytes",
          "name": "_data",
          "type": "bytes"
        }
      ],
      "name": "safeTransferFrom",
      "outputs": [],
      "stateMutability": "nonpayable",
      "type": "function"
    },
    {
      "inputs": [
        {
          "internalType": "address",
          "name": "operator",
          "type": "address"
        },
        {
          "internalType": "bool",
          "name": "approved",
          "type": "bool"
        }
      ],
      "name": "setApprovalForAll",
      "outputs": [],
      "stateMutability": "nonpayable",
      "type": "function"
    },
    {
      "inputs": [
        {
          "internalType": "string",
          "name": "newuri",
          "type": "string"
        }
      ],
      "name": "setURI",
      "outputs": [],
      "stateMutability": "nonpayable",
      "type": "function"
    },
    {
      "inputs": [
        {
          "internalType": "bytes4",
          "name": "interfaceId",
          "type": "bytes4"
        }
      ],
      "name": "supportsInterface",
      "outputs": [
        {
          "internalType": "bool",
          "name": "",
          "type": "bool"
        }
      ],
      "stateMutability": "view",
      "type": "function"
    },
    {
      "inputs": [],
      "name": "symbol",
      "outputs": [
        {
          "internalType": "string",
          "name": "",
          "type": "string"
        }
      ],
      "stateMutability": "view",
      "type": "function"
    },
    {
      "inputs": [
        {
          "internalType": "uint256",
          "name": "tokenId",
          "type": "uint256"
        }
      ],
      "name": "tokenURI",
      "outputs": [
        {
          "internalType": "string",
          "name": "",
          "type": "string"
        }
      ],
      "stateMutability": "view",
      "type": "function"
    },
    {
      "inputs": [],
      "name": "totalEditions",
      "outputs": [
        {
          "internalType": "uint256",
          "name": "",
          "type": "uint256"
        }
      ],
      "stateMutability": "view",
      "type": "function"
    },
    {
      "inputs": [
        {
          "internalType": "address",
          "name": "from",
          "type": "address"
        },
        {
          "internalType": "address",
          "name": "to",
          "type": "address"
        },
        {
          "internalType": "uint256",
          "name": "tokenId",
          "type": "uint256"
        }
      ],
      "name": "transferFrom",
      "outputs": [],
      "stateMutability": "nonpayable",
      "type": "function"
    },
    {
      "inputs": [
        {
          "internalType": "address",
          "name": "newOwner",
          "type": "address"
        }
      ],
      "name": "transferOwnership",
      "outputs": [],
      "stateMutability": "nonpayable",
      "type": "function"
    },
    {
      "inputs": [
        {
          "internalType": "uint256",
          "name": "newMax",
          "type": "uint256"
        }
      ],
      "name": "updateEditions",
      "outputs": [],
      "stateMutability": "nonpayable",
      "type": "function"
    },
    {
      "inputs": [
        {
          "internalType": "address payable",
          "name": "withdrawAddress",
          "type": "address"
        }
      ],
      "name": "withdraw",
      "outputs": [],
      "stateMutability": "payable",
      "type": "function"
    }
  ],
  "bytecode": "0x608060405260006009556001600a60006101000a81548160ff0219169083151502179055506001600a60016101000a81548160ff021916908315150217905550604051806080016040528060518152602001620040b160519139600b90805190602001906200007092919062000254565b5066b1a2bc2ec50000600c553480156200008957600080fd5b506040518060400160405280601081526020017f5365656473206f6620556b7261696e65000000000000000000000000000000008152506040518060400160405280600381526020017f534f55000000000000000000000000000000000000000000000000000000000081525081600090805190602001906200010e92919062000254565b5080600190805190602001906200012792919062000254565b5050506200014a6200013e6200018660201b60201c565b6200018e60201b60201c565b600160078190555061271060098190555062000180737735b940d673344845ac239cdddde1d73b5d56276200018e60201b60201c565b62000369565b600033905090565b6000600660009054906101000a900473ffffffffffffffffffffffffffffffffffffffff16905081600660006101000a81548173ffffffffffffffffffffffffffffffffffffffff021916908373ffffffffffffffffffffffffffffffffffffffff1602179055508173ffffffffffffffffffffffffffffffffffffffff168173ffffffffffffffffffffffffffffffffffffffff167f8be0079c531659141344cd1fd0a4f28419497f9722a3daafe3b4186f6b6457e060405160405180910390a35050565b828054620002629062000304565b90600052602060002090601f016020900481019282620002865760008555620002d2565b82601f10620002a157805160ff1916838001178555620002d2565b82800160010185558215620002d2579182015b82811115620002d1578251825591602001919060010190620002b4565b5b509050620002e19190620002e5565b5090565b5b8082111562000300576000816000905550600101620002e6565b5090565b600060028204905060018216806200031d57607f821691505b602082108114156200033457620003336200033a565b5b50919050565b7f4e487b7100000000000000000000000000000000000000000000000000000000600052602260045260246000fd5b613d3880620003796000396000f3fe60806040526004361061019c5760003560e01c8063715018a6116100ec578063abcf3bdd1161008a578063c87b56dd11610064578063c87b56dd1461055e578063e985e9c51461059b578063f2467883146105d8578063f2fde38b146106035761019c565b8063abcf3bdd14610507578063b27e48551461051e578063b88d4fde146105355761019c565b806395d89b41116100c657806395d89b411461046c578063a035b1fe14610497578063a0712d68146104c2578063a22cb465146104de5761019c565b8063715018a614610401578063857e57d2146104185780638da5cb5b146104415761019c565b80630dccc9ad1161015957806351cff8d91161013357806351cff8d91461034057806351d329dc1461035c5780636352211e1461038757806370a08231146103c45761019c565b80630dccc9ad146102c357806323b872dd146102ee57806342842e0e146103175761019c565b806301ffc9a7146101a157806302fe5305146101de5780630559139f1461020757806306fdde0314610232578063081812fc1461025d578063095ea7b31461029a575b600080fd5b3480156101ad57600080fd5b506101c860048036038101906101c39190612872565b61062c565b6040516101d59190612e63565b60405180910390f35b3480156101ea57600080fd5b50610205600480360381019061020091906128cc565b61070e565b005b34801561021357600080fd5b5061021c6107fa565b6040516102299190612e63565b60405180910390f35b34801561023e57600080fd5b5061024761080d565b6040516102549190612e7e565b60405180910390f35b34801561026957600080fd5b50610284600480360381019061027f9190612915565b61089f565b6040516102919190612dfc565b60405180910390f35b3480156102a657600080fd5b506102c160048036038101906102bc9190612832565b610924565b005b3480156102cf57600080fd5b506102d8610a3c565b6040516102e59190612e7e565b60405180910390f35b3480156102fa57600080fd5b506103156004803603810190610310919061271c565b610aca565b005b34801561032357600080fd5b5061033e6004803603810190610339919061271c565b610b2a565b005b61035a600480360381019061035591906126af565b610b4a565b005b34801561036857600080fd5b50610371610d83565b60405161037e91906131e0565b60405180910390f35b34801561039357600080fd5b506103ae60048036038101906103a99190612915565b610d89565b6040516103bb9190612dfc565b60405180910390f35b3480156103d057600080fd5b506103eb60048036038101906103e69190612682565b610e3b565b6040516103f891906131e0565b60405180910390f35b34801561040d57600080fd5b50610416610ef3565b005b34801561042457600080fd5b5061043f600480360381019061043a9190612915565b610f7b565b005b34801561044d57600080fd5b5061045661109c565b6040516104639190612dfc565b60405180910390f35b34801561047857600080fd5b506104816110c6565b60405161048e9190612e7e565b60405180910390f35b3480156104a357600080fd5b506104ac611158565b6040516104b991906131e0565b60405180910390f35b6104dc60048036038101906104d79190612915565b61115e565b005b3480156104ea57600080fd5b50610505600480360381019061050091906127f2565b61124c565b005b34801561051357600080fd5b5061051c611262565b005b34801561052a57600080fd5b50610533611351565b005b34801561054157600080fd5b5061055c6004803603810190610557919061276f565b611440565b005b34801561056a57600080fd5b5061058560048036038101906105809190612915565b6114a2565b6040516105929190612e7e565b60405180910390f35b3480156105a757600080fd5b506105c260048036038101906105bd91906126dc565b611549565b6040516105cf9190612e63565b60405180910390f35b3480156105e457600080fd5b506105ed6115dd565b6040516105fa9190612e63565b60405180910390f35b34801561060f57600080fd5b5061062a60048036038101906106259190612682565b6115f0565b005b60007f80ac58cd000000000000000000000000000000000000000000000000000000007bffffffffffffffffffffffffffffffffffffffffffffffffffffffff1916827bffffffffffffffffffffffffffffffffffffffffffffffffffffffff191614806106f757507f5b5e139f000000000000000000000000000000000000000000000000000000007bffffffffffffffffffffffffffffffffffffffffffffffffffffffff1916827bffffffffffffffffffffffffffffffffffffffffffffffffffffffff1916145b806107075750610706826116e8565b5b9050919050565b610716611752565b73ffffffffffffffffffffffffffffffffffffffff1661073461109c565b73ffffffffffffffffffffffffffffffffffffffff161461078a576040517f08c379a0000000000000000000000000000000000000000000000000000000008152600401610781906130e0565b60405180910390fd5b60011515600a60019054906101000a900460ff161515146107e0576040517f08c379a00000000000000000000000000000000000000000000000000000000081526004016107d7906130a0565b60405180910390fd5b80600b90805190602001906107f6929190612481565b5050565b600a60009054906101000a900460ff1681565b60606000805461081c906134ad565b80601f0160208091040260200160405190810160405280929190818152602001828054610848906134ad565b80156108955780601f1061086a57610100808354040283529160200191610895565b820191906000526020600020905b81548152906001019060200180831161087857829003601f168201915b5050505050905090565b60006108aa8261175a565b6108e9576040517f08c379a00000000000000000000000000000000000000000000000000000000081526004016108e0906130c0565b60405180910390fd5b6004600083815260200190815260200160002060009054906101000a900473ffffffffffffffffffffffffffffffffffffffff169050919050565b600061092f82610d89565b90508073ffffffffffffffffffffffffffffffffffffffff168373ffffffffffffffffffffffffffffffffffffffff1614156109a0576040517f08c379a000000000000000000000000000000000000000000000000000000000815260040161099790613120565b60405180910390fd5b8073ffffffffffffffffffffffffffffffffffffffff166109bf611752565b73ffffffffffffffffffffffffffffffffffffffff1614806109ee57506109ed816109e8611752565b611549565b5b610a2d576040517f08c379a0000000000000000000000000000000000000000000000000000000008152600401610a2490612fe0565b60405180910390fd5b610a3783836117c6565b505050565b600b8054610a49906134ad565b80601f0160208091040260200160405190810160405280929190818152602001828054610a75906134ad565b8015610ac25780601f10610a9757610100808354040283529160200191610ac2565b820191906000526020600020905b815481529060010190602001808311610aa557829003601f168201915b505050505081565b610adb610ad5611752565b8261187f565b610b1a576040517f08c379a0000000000000000000000000000000000000000000000000000000008152600401610b1190613160565b60405180910390fd5b610b2583838361195d565b505050565b610b4583838360405180602001604052806000815250611440565b505050565b60026007541415610b90576040517f08c379a0000000000000000000000000000000000000000000000000000000008152600401610b87906131c0565b60405180910390fd5b6002600781905550610ba0611752565b73ffffffffffffffffffffffffffffffffffffffff16610bbe61109c565b73ffffffffffffffffffffffffffffffffffffffff1614610c14576040517f08c379a0000000000000000000000000000000000000000000000000000000008152600401610c0b906130e0565b60405180910390fd5b600073ffffffffffffffffffffffffffffffffffffffff168173ffffffffffffffffffffffffffffffffffffffff161415610c84576040517f08c379a0000000000000000000000000000000000000000000000000000000008152600401610c7b90613180565b60405180910390fd5b6000471015610cc8576040517f08c379a0000000000000000000000000000000000000000000000000000000008152600401610cbf90612fc0565b60405180910390fd5b6000808273ffffffffffffffffffffffffffffffffffffffff1647604051610cef90612de7565b60006040518083038185875af1925050503d8060008114610d2c576040519150601f19603f3d011682016040523d82523d6000602084013e610d31565b606091505b509150915081610d76576040517f08c379a0000000000000000000000000000000000000000000000000000000008152600401610d6d90612f40565b60405180910390fd5b5050600160078190555050565b60095481565b6000806002600084815260200190815260200160002060009054906101000a900473ffffffffffffffffffffffffffffffffffffffff169050600073ffffffffffffffffffffffffffffffffffffffff168173ffffffffffffffffffffffffffffffffffffffff161415610e32576040517f08c379a0000000000000000000000000000000000000000000000000000000008152600401610e2990613040565b60405180910390fd5b80915050919050565b60008073ffffffffffffffffffffffffffffffffffffffff168273ffffffffffffffffffffffffffffffffffffffff161415610eac576040517f08c379a0000000000000000000000000000000000000000000000000000000008152600401610ea390613020565b60405180910390fd5b600360008373ffffffffffffffffffffffffffffffffffffffff1673ffffffffffffffffffffffffffffffffffffffff168152602001908152602001600020549050919050565b610efb611752565b73ffffffffffffffffffffffffffffffffffffffff16610f1961109c565b73ffffffffffffffffffffffffffffffffffffffff1614610f6f576040517f08c379a0000000000000000000000000000000000000000000000000000000008152600401610f66906130e0565b60405180910390fd5b610f796000611bc4565b565b610f83611752565b73ffffffffffffffffffffffffffffffffffffffff16610fa161109c565b73ffffffffffffffffffffffffffffffffffffffff1614610ff7576040517f08c379a0000000000000000000000000000000000000000000000000000000008152600401610fee906130e0565b60405180910390fd5b60095481101561103c576040517f08c379a000000000000000000000000000000000000000000000000000000000815260040161103390613060565b60405180910390fd5b60011515600a60009054906101000a900460ff16151514611092576040517f08c379a000000000000000000000000000000000000000000000000000000000815260040161108990613000565b60405180910390fd5b8060098190555050565b6000600660009054906101000a900473ffffffffffffffffffffffffffffffffffffffff16905090565b6060600180546110d5906134ad565b80601f0160208091040260200160405190810160405280929190818152602001828054611101906134ad565b801561114e5780601f106111235761010080835404028352916020019161114e565b820191906000526020600020905b81548152906001019060200180831161113157829003601f168201915b5050505050905090565b600c5481565b60095461116b6008611c8a565b11156111ac576040517f08c379a00000000000000000000000000000000000000000000000000000000081526004016111a3906131a0565b60405180910390fd5b80600c546111ba9190613357565b3410156111fc576040517f08c379a00000000000000000000000000000000000000000000000000000000081526004016111f390612fc0565b60405180910390fd5b60005b60018261120c91906133b1565b811161124857600061121e6008611c8a565b905061122a3382611c98565b6112346008611cb6565b50808061124090613510565b9150506111ff565b5050565b61125e611257611752565b8383611ccc565b5050565b61126a611752565b73ffffffffffffffffffffffffffffffffffffffff1661128861109c565b73ffffffffffffffffffffffffffffffffffffffff16146112de576040517f08c379a00000000000000000000000000000000000000000000000000000000081526004016112d5906130e0565b60405180910390fd5b60011515600a60009054906101000a900460ff16151514611334576040517f08c379a000000000000000000000000000000000000000000000000000000000815260040161132b90613140565b60405180910390fd5b6000600a60006101000a81548160ff021916908315150217905550565b611359611752565b73ffffffffffffffffffffffffffffffffffffffff1661137761109c565b73ffffffffffffffffffffffffffffffffffffffff16146113cd576040517f08c379a00000000000000000000000000000000000000000000000000000000081526004016113c4906130e0565b60405180910390fd5b60011515600a60019054906101000a900460ff16151514611423576040517f08c379a000000000000000000000000000000000000000000000000000000000815260040161141a90612ea0565b60405180910390fd5b6000600a60016101000a81548160ff021916908315150217905550565b61145161144b611752565b8361187f565b611490576040517f08c379a000000000000000000000000000000000000000000000000000000000815260040161148790613160565b60405180910390fd5b61149c84848484611e39565b50505050565b60606114ad8261175a565b6114ec576040517f08c379a00000000000000000000000000000000000000000000000000000000081526004016114e390613100565b60405180910390fd5b60006114f6611e95565b905060008151116115165760405180602001604052806000815250611541565b8061152084611f27565b604051602001611531929190612dc3565b6040516020818303038152906040525b915050919050565b6000600560008473ffffffffffffffffffffffffffffffffffffffff1673ffffffffffffffffffffffffffffffffffffffff16815260200190815260200160002060008373ffffffffffffffffffffffffffffffffffffffff1673ffffffffffffffffffffffffffffffffffffffff16815260200190815260200160002060009054906101000a900460ff16905092915050565b600a60019054906101000a900460ff1681565b6115f8611752565b73ffffffffffffffffffffffffffffffffffffffff1661161661109c565b73ffffffffffffffffffffffffffffffffffffffff161461166c576040517f08c379a0000000000000000000000000000000000000000000000000000000008152600401611663906130e0565b60405180910390fd5b600073ffffffffffffffffffffffffffffffffffffffff168173ffffffffffffffffffffffffffffffffffffffff1614156116dc576040517f08c379a00000000000000000000000000000000000000000000000000000000081526004016116d390612ee0565b60405180910390fd5b6116e581611bc4565b50565b60007f01ffc9a7000000000000000000000000000000000000000000000000000000007bffffffffffffffffffffffffffffffffffffffffffffffffffffffff1916827bffffffffffffffffffffffffffffffffffffffffffffffffffffffff1916149050919050565b600033905090565b60008073ffffffffffffffffffffffffffffffffffffffff166002600084815260200190815260200160002060009054906101000a900473ffffffffffffffffffffffffffffffffffffffff1673ffffffffffffffffffffffffffffffffffffffff1614159050919050565b816004600083815260200190815260200160002060006101000a81548173ffffffffffffffffffffffffffffffffffffffff021916908373ffffffffffffffffffffffffffffffffffffffff160217905550808273ffffffffffffffffffffffffffffffffffffffff1661183983610d89565b73ffffffffffffffffffffffffffffffffffffffff167f8c5be1e5ebec7d5bd14f71427d1e84f3dd0314c0f7b2291e5b200ac8c7c3b92560405160405180910390a45050565b600061188a8261175a565b6118c9576040517f08c379a00000000000000000000000000000000000000000000000000000000081526004016118c090612fa0565b60405180910390fd5b60006118d483610d89565b90508073ffffffffffffffffffffffffffffffffffffffff168473ffffffffffffffffffffffffffffffffffffffff16148061194357508373ffffffffffffffffffffffffffffffffffffffff1661192b8461089f565b73ffffffffffffffffffffffffffffffffffffffff16145b8061195457506119538185611549565b5b91505092915050565b8273ffffffffffffffffffffffffffffffffffffffff1661197d82610d89565b73ffffffffffffffffffffffffffffffffffffffff16146119d3576040517f08c379a00000000000000000000000000000000000000000000000000000000081526004016119ca90612f00565b60405180910390fd5b600073ffffffffffffffffffffffffffffffffffffffff168273ffffffffffffffffffffffffffffffffffffffff161415611a43576040517f08c379a0000000000000000000000000000000000000000000000000000000008152600401611a3a90612f60565b60405180910390fd5b611a4e838383612088565b611a596000826117c6565b6001600360008573ffffffffffffffffffffffffffffffffffffffff1673ffffffffffffffffffffffffffffffffffffffff1681526020019081526020016000206000828254611aa991906133b1565b925050819055506001600360008473ffffffffffffffffffffffffffffffffffffffff1673ffffffffffffffffffffffffffffffffffffffff1681526020019081526020016000206000828254611b0091906132d0565b92505081905550816002600083815260200190815260200160002060006101000a81548173ffffffffffffffffffffffffffffffffffffffff021916908373ffffffffffffffffffffffffffffffffffffffff160217905550808273ffffffffffffffffffffffffffffffffffffffff168473ffffffffffffffffffffffffffffffffffffffff167fddf252ad1be2c89b69c2b068fc378daa952ba7f163c4a11628f55a4df523b3ef60405160405180910390a4611bbf83838361208d565b505050565b6000600660009054906101000a900473ffffffffffffffffffffffffffffffffffffffff16905081600660006101000a81548173ffffffffffffffffffffffffffffffffffffffff021916908373ffffffffffffffffffffffffffffffffffffffff1602179055508173ffffffffffffffffffffffffffffffffffffffff168173ffffffffffffffffffffffffffffffffffffffff167f8be0079c531659141344cd1fd0a4f28419497f9722a3daafe3b4186f6b6457e060405160405180910390a35050565b600081600001549050919050565b611cb2828260405180602001604052806000815250612092565b5050565b6001816000016000828254019250508190555050565b8173ffffffffffffffffffffffffffffffffffffffff168373ffffffffffffffffffffffffffffffffffffffff161415611d3b576040517f08c379a0000000000000000000000000000000000000000000000000000000008152600401611d3290612f80565b60405180910390fd5b80600560008573ffffffffffffffffffffffffffffffffffffffff1673ffffffffffffffffffffffffffffffffffffffff16815260200190815260200160002060008473ffffffffffffffffffffffffffffffffffffffff1673ffffffffffffffffffffffffffffffffffffffff16815260200190815260200160002060006101000a81548160ff0219169083151502179055508173ffffffffffffffffffffffffffffffffffffffff168373ffffffffffffffffffffffffffffffffffffffff167f17307eab39ab6107e8899845ad3d59bd9653f200f220920489ca2b5937696c3183604051611e2c9190612e63565b60405180910390a3505050565b611e4484848461195d565b611e50848484846120ed565b611e8f576040517f08c379a0000000000000000000000000000000000000000000000000000000008152600401611e8690612ec0565b60405180910390fd5b50505050565b6060600b8054611ea4906134ad565b80601f0160208091040260200160405190810160405280929190818152602001828054611ed0906134ad565b8015611f1d5780601f10611ef257610100808354040283529160200191611f1d565b820191906000526020600020905b815481529060010190602001808311611f0057829003601f168201915b5050505050905090565b60606000821415611f6f576040518060400160405280600181526020017f30000000000000000000000000000000000000000000000000000000000000008152509050612083565b600082905060005b60008214611fa1578080611f8a90613510565b915050600a82611f9a9190613326565b9150611f77565b60008167ffffffffffffffff811115611fbd57611fbc613646565b5b6040519080825280601f01601f191660200182016040528015611fef5781602001600182028036833780820191505090505b5090505b6000851461207c5760018261200891906133b1565b9150600a856120179190613559565b603061202391906132d0565b60f81b81838151811061203957612038613617565b5b60200101907effffffffffffffffffffffffffffffffffffffffffffffffffffffffffffff1916908160001a905350600a856120759190613326565b9450611ff3565b8093505050505b919050565b505050565b505050565b61209c8383612284565b6120a960008484846120ed565b6120e8576040517f08c379a00000000000000000000000000000000000000000000000000000000081526004016120df90612ec0565b60405180910390fd5b505050565b600061210e8473ffffffffffffffffffffffffffffffffffffffff1661245e565b15612277578373ffffffffffffffffffffffffffffffffffffffff1663150b7a02612137611752565b8786866040518563ffffffff1660e01b81526004016121599493929190612e17565b602060405180830381600087803b15801561217357600080fd5b505af19250505080156121a457506040513d601f19601f820116820180604052508101906121a1919061289f565b60015b612227573d80600081146121d4576040519150601f19603f3d011682016040523d82523d6000602084013e6121d9565b606091505b5060008151141561221f576040517f08c379a000000000000000000000000000000000000000000000000000000000815260040161221690612ec0565b60405180910390fd5b805181602001fd5b63150b7a0260e01b7bffffffffffffffffffffffffffffffffffffffffffffffffffffffff1916817bffffffffffffffffffffffffffffffffffffffffffffffffffffffff19161491505061227c565b600190505b949350505050565b600073ffffffffffffffffffffffffffffffffffffffff168273ffffffffffffffffffffffffffffffffffffffff1614156122f4576040517f08c379a00000000000000000000000000000000000000000000000000000000081526004016122eb90613080565b60405180910390fd5b6122fd8161175a565b1561233d576040517f08c379a000000000000000000000000000000000000000000000000000000000815260040161233490612f20565b60405180910390fd5b61234960008383612088565b6001600360008473ffffffffffffffffffffffffffffffffffffffff1673ffffffffffffffffffffffffffffffffffffffff168152602001908152602001600020600082825461239991906132d0565b92505081905550816002600083815260200190815260200160002060006101000a81548173ffffffffffffffffffffffffffffffffffffffff021916908373ffffffffffffffffffffffffffffffffffffffff160217905550808273ffffffffffffffffffffffffffffffffffffffff16600073ffffffffffffffffffffffffffffffffffffffff167fddf252ad1be2c89b69c2b068fc378daa952ba7f163c4a11628f55a4df523b3ef60405160405180910390a461245a6000838361208d565b5050565b6000808273ffffffffffffffffffffffffffffffffffffffff163b119050919050565b82805461248d906134ad565b90600052602060002090601f0160209004810192826124af57600085556124f6565b82601f106124c857805160ff19168380011785556124f6565b828001600101855582156124f6579182015b828111156124f55782518255916020019190600101906124da565b5b5090506125039190612507565b5090565b5b80821115612520576000816000905550600101612508565b5090565b600061253761253284613220565b6131fb565b9050828152602081018484840111156125535761255261367a565b5b61255e84828561346b565b509392505050565b600061257961257484613251565b6131fb565b9050828152602081018484840111156125955761259461367a565b5b6125a084828561346b565b509392505050565b6000813590506125b781613c8f565b92915050565b6000813590506125cc81613ca6565b92915050565b6000813590506125e181613cbd565b92915050565b6000813590506125f681613cd4565b92915050565b60008151905061260b81613cd4565b92915050565b600082601f83011261262657612625613675565b5b8135612636848260208601612524565b91505092915050565b600082601f83011261265457612653613675565b5b8135612664848260208601612566565b91505092915050565b60008135905061267c81613ceb565b92915050565b60006020828403121561269857612697613684565b5b60006126a6848285016125a8565b91505092915050565b6000602082840312156126c5576126c4613684565b5b60006126d3848285016125bd565b91505092915050565b600080604083850312156126f3576126f2613684565b5b6000612701858286016125a8565b9250506020612712858286016125a8565b9150509250929050565b60008060006060848603121561273557612734613684565b5b6000612743868287016125a8565b9350506020612754868287016125a8565b92505060406127658682870161266d565b9150509250925092565b6000806000806080858703121561278957612788613684565b5b6000612797878288016125a8565b94505060206127a8878288016125a8565b93505060406127b98782880161266d565b925050606085013567ffffffffffffffff8111156127da576127d961367f565b5b6127e687828801612611565b91505092959194509250565b6000806040838503121561280957612808613684565b5b6000612817858286016125a8565b9250506020612828858286016125d2565b9150509250929050565b6000806040838503121561284957612848613684565b5b6000612857858286016125a8565b92505060206128688582860161266d565b9150509250929050565b60006020828403121561288857612887613684565b5b6000612896848285016125e7565b91505092915050565b6000602082840312156128b5576128b4613684565b5b60006128c3848285016125fc565b91505092915050565b6000602082840312156128e2576128e1613684565b5b600082013567ffffffffffffffff811115612900576128ff61367f565b5b61290c8482850161263f565b91505092915050565b60006020828403121561292b5761292a613684565b5b60006129398482850161266d565b91505092915050565b61294b816133e5565b82525050565b61295a81613409565b82525050565b600061296b82613282565b6129758185613298565b935061298581856020860161347a565b61298e81613689565b840191505092915050565b60006129a48261328d565b6129ae81856132b4565b93506129be81856020860161347a565b6129c781613689565b840191505092915050565b60006129dd8261328d565b6129e781856132c5565b93506129f781856020860161347a565b80840191505092915050565b6000612a106019836132b4565b9150612a1b8261369a565b602082019050919050565b6000612a336032836132b4565b9150612a3e826136c3565b604082019050919050565b6000612a566026836132b4565b9150612a6182613712565b604082019050919050565b6000612a796025836132b4565b9150612a8482613761565b604082019050919050565b6000612a9c601c836132b4565b9150612aa7826137b0565b602082019050919050565b6000612abf6014836132b4565b9150612aca826137d9565b602082019050919050565b6000612ae26024836132b4565b9150612aed82613802565b604082019050919050565b6000612b056019836132b4565b9150612b1082613851565b602082019050919050565b6000612b28602c836132b4565b9150612b338261387a565b604082019050919050565b6000612b4b600e836132b4565b9150612b56826138c9565b602082019050919050565b6000612b6e6038836132b4565b9150612b79826138f2565b604082019050919050565b6000612b91601d836132b4565b9150612b9c82613941565b602082019050919050565b6000612bb4602a836132b4565b9150612bbf8261396a565b604082019050919050565b6000612bd76029836132b4565b9150612be2826139b9565b604082019050919050565b6000612bfa6017836132b4565b9150612c0582613a08565b602082019050919050565b6000612c1d6020836132b4565b9150612c2882613a31565b602082019050919050565b6000612c406018836132b4565b9150612c4b82613a5a565b602082019050919050565b6000612c63602c836132b4565b9150612c6e82613a83565b604082019050919050565b6000612c866020836132b4565b9150612c9182613ad2565b602082019050919050565b6000612ca9602f836132b4565b9150612cb482613afb565b604082019050919050565b6000612ccc6021836132b4565b9150612cd782613b4a565b604082019050919050565b6000612cef601d836132b4565b9150612cfa82613b99565b602082019050919050565b6000612d126000836132a9565b9150612d1d82613bc2565b600082019050919050565b6000612d356031836132b4565b9150612d4082613bc5565b604082019050919050565b6000612d58601f836132b4565b9150612d6382613c14565b602082019050919050565b6000612d7b601b836132b4565b9150612d8682613c3d565b602082019050919050565b6000612d9e601f836132b4565b9150612da982613c66565b602082019050919050565b612dbd81613461565b82525050565b6000612dcf82856129d2565b9150612ddb82846129d2565b91508190509392505050565b6000612df282612d05565b9150819050919050565b6000602082019050612e116000830184612942565b92915050565b6000608082019050612e2c6000830187612942565b612e396020830186612942565b612e466040830185612db4565b8181036060830152612e588184612960565b905095945050505050565b6000602082019050612e786000830184612951565b92915050565b60006020820190508181036000830152612e988184612999565b905092915050565b60006020820190508181036000830152612eb981612a03565b9050919050565b60006020820190508181036000830152612ed981612a26565b9050919050565b60006020820190508181036000830152612ef981612a49565b9050919050565b60006020820190508181036000830152612f1981612a6c565b9050919050565b60006020820190508181036000830152612f3981612a8f565b9050919050565b60006020820190508181036000830152612f5981612ab2565b9050919050565b60006020820190508181036000830152612f7981612ad5565b9050919050565b60006020820190508181036000830152612f9981612af8565b9050919050565b60006020820190508181036000830152612fb981612b1b565b9050919050565b60006020820190508181036000830152612fd981612b3e565b9050919050565b60006020820190508181036000830152612ff981612b61565b9050919050565b6000602082019050818103600083015261301981612b84565b9050919050565b6000602082019050818103600083015261303981612ba7565b9050919050565b6000602082019050818103600083015261305981612bca565b9050919050565b6000602082019050818103600083015261307981612bed565b9050919050565b6000602082019050818103600083015261309981612c10565b9050919050565b600060208201905081810360008301526130b981612c33565b9050919050565b600060208201905081810360008301526130d981612c56565b9050919050565b600060208201905081810360008301526130f981612c79565b9050919050565b6000602082019050818103600083015261311981612c9c565b9050919050565b6000602082019050818103600083015261313981612cbf565b9050919050565b6000602082019050818103600083015261315981612ce2565b9050919050565b6000602082019050818103600083015261317981612d28565b9050919050565b6000602082019050818103600083015261319981612d4b565b9050919050565b600060208201905081810360008301526131b981612d6e565b9050919050565b600060208201905081810360008301526131d981612d91565b9050919050565b60006020820190506131f56000830184612db4565b92915050565b6000613205613216565b905061321182826134df565b919050565b6000604051905090565b600067ffffffffffffffff82111561323b5761323a613646565b5b61324482613689565b9050602081019050919050565b600067ffffffffffffffff82111561326c5761326b613646565b5b61327582613689565b9050602081019050919050565b600081519050919050565b600081519050919050565b600082825260208201905092915050565b600081905092915050565b600082825260208201905092915050565b600081905092915050565b60006132db82613461565b91506132e683613461565b9250827fffffffffffffffffffffffffffffffffffffffffffffffffffffffffffffffff0382111561331b5761331a61358a565b5b828201905092915050565b600061333182613461565b915061333c83613461565b92508261334c5761334b6135b9565b5b828204905092915050565b600061336282613461565b915061336d83613461565b9250817fffffffffffffffffffffffffffffffffffffffffffffffffffffffffffffffff04831182151516156133a6576133a561358a565b5b828202905092915050565b60006133bc82613461565b91506133c783613461565b9250828210156133da576133d961358a565b5b828203905092915050565b60006133f082613441565b9050919050565b600061340282613441565b9050919050565b60008115159050919050565b60007fffffffff0000000000000000000000000000000000000000000000000000000082169050919050565b600073ffffffffffffffffffffffffffffffffffffffff82169050919050565b6000819050919050565b82818337600083830152505050565b60005b8381101561349857808201518184015260208101905061347d565b838111156134a7576000848401525b50505050565b600060028204905060018216806134c557607f821691505b602082108114156134d9576134d86135e8565b5b50919050565b6134e882613689565b810181811067ffffffffffffffff8211171561350757613506613646565b5b80604052505050565b600061351b82613461565b91507fffffffffffffffffffffffffffffffffffffffffffffffffffffffffffffffff82141561354e5761354d61358a565b5b600182019050919050565b600061356482613461565b915061356f83613461565b92508261357f5761357e6135b9565b5b828206905092915050565b7f4e487b7100000000000000000000000000000000000000000000000000000000600052601160045260246000fd5b7f4e487b7100000000000000000000000000000000000000000000000000000000600052601260045260246000fd5b7f4e487b7100000000000000000000000000000000000000000000000000000000600052602260045260246000fd5b7f4e487b7100000000000000000000000000000000000000000000000000000000600052603260045260246000fd5b7f4e487b7100000000000000000000000000000000000000000000000000000000600052604160045260246000fd5b600080fd5b600080fd5b600080fd5b600080fd5b6000601f19601f8301169050919050565b7f6275726e2055524920616c72656164792068617070656e656400000000000000600082015250565b7f4552433732313a207472616e7366657220746f206e6f6e20455243373231526560008201527f63656976657220696d706c656d656e7465720000000000000000000000000000602082015250565b7f4f776e61626c653a206e6577206f776e657220697320746865207a65726f206160008201527f6464726573730000000000000000000000000000000000000000000000000000602082015250565b7f4552433732313a207472616e736665722066726f6d20696e636f72726563742060008201527f6f776e6572000000000000000000000000000000000000000000000000000000602082015250565b7f4552433732313a20746f6b656e20616c7265616479206d696e74656400000000600082015250565b7f4661696c656420746f2073656e64204574686572000000000000000000000000600082015250565b7f4552433732313a207472616e7366657220746f20746865207a65726f2061646460008201527f7265737300000000000000000000000000000000000000000000000000000000602082015250565b7f4552433732313a20617070726f766520746f2063616c6c657200000000000000600082015250565b7f4552433732313a206f70657261746f7220717565727920666f72206e6f6e657860008201527f697374656e7420746f6b656e0000000000000000000000000000000000000000602082015250565b7f4e6f7420656e6f75676820657468000000000000000000000000000000000000600082015250565b7f4552433732313a20617070726f76652063616c6c6572206973206e6f74206f7760008201527f6e6572206e6f7220617070726f76656420666f7220616c6c0000000000000000602082015250565b7f63616e206e6f206c6f6e676572207570646174652065646974696f6e73000000600082015250565b7f4552433732313a2062616c616e636520717565727920666f7220746865207a6560008201527f726f206164647265737300000000000000000000000000000000000000000000602082015250565b7f4552433732313a206f776e657220717565727920666f72206e6f6e657869737460008201527f656e7420746f6b656e0000000000000000000000000000000000000000000000602082015250565b7f6e6577206d6178206d7573742062652067726561746572000000000000000000600082015250565b7f4552433732313a206d696e7420746f20746865207a65726f2061646472657373600082015250565b7f63616e206e6f206c6f6e67657220757064617465205552490000000000000000600082015250565b7f4552433732313a20617070726f76656420717565727920666f72206e6f6e657860008201527f697374656e7420746f6b656e0000000000000000000000000000000000000000602082015250565b7f4f776e61626c653a2063616c6c6572206973206e6f7420746865206f776e6572600082015250565b7f4552433732314d657461646174613a2055524920717565727920666f72206e6f60008201527f6e6578697374656e7420746f6b656e0000000000000000000000000000000000602082015250565b7f4552433732313a20617070726f76616c20746f2063757272656e74206f776e6560008201527f7200000000000000000000000000000000000000000000000000000000000000602082015250565b7f6275726e207570646174657320616c72656164792068617070656e6564000000600082015250565b50565b7f4552433732313a207472616e736665722063616c6c6572206973206e6f74206f60008201527f776e6572206e6f7220617070726f766564000000000000000000000000000000602082015250565b7f576974686472617720616464726573732063616e6e6f74206265207a65726f00600082015250565b7f6d696e74696e6720686173207265616368656420697473206d61780000000000600082015250565b7f5265656e7472616e637947756172643a207265656e7472616e742063616c6c00600082015250565b613c98816133e5565b8114613ca357600080fd5b50565b613caf816133f7565b8114613cba57600080fd5b50565b613cc681613409565b8114613cd157600080fd5b50565b613cdd81613415565b8114613ce857600080fd5b50565b613cf481613461565b8114613cff57600080fd5b5056fea2646970667358221220bddc6b255bda82690d3b7018b3ac0561d84a86b6d0f0157383fa4c8c54cbd05d64736f6c6343000806003368747470733a2f2f676174657761792e70696e6174612e636c6f75642f697066732f516d5777564d46556d3662646252657a323642554a55714c6f697a523650726d6e337a503575326d37597a5255792f",
  "linkReferences": {},
  "deployedLinkReferences": {}
}